{
  "contractName": "DecentralisedWill",
  "abi": [
    {
      "inputs": [
        {
          "internalType": "address payable",
          "name": "_to",
          "type": "address"
        },
        {
          "internalType": "uint256",
          "name": "_num",
          "type": "uint256"
        }
      ],
      "name": "distributeAsset",
      "outputs": [],
      "stateMutability": "payable",
      "type": "function"
    }
  ],
  "bytecode": "0x608060405234801561001057600080fd5b50610199806100206000396000f3fe60806040526004361061001e5760003560e01c8063879333e914610023575b600080fd5b61003d60048036038101906100389190610123565b61003f565b005b8173ffffffffffffffffffffffffffffffffffffffff166108fc829081150290604051600060405180830381858888f19350505050158015610085573d6000803e3d6000fd5b505050565b600080fd5b600073ffffffffffffffffffffffffffffffffffffffff82169050919050565b60006100ba8261008f565b9050919050565b6100ca816100af565b81146100d557600080fd5b50565b6000813590506100e7816100c1565b92915050565b6000819050919050565b610100816100ed565b811461010b57600080fd5b50565b60008135905061011d816100f7565b92915050565b6000806040838503121561013a5761013961008a565b5b6000610148858286016100d8565b92505060206101598582860161010e565b915050925092905056fea26469706673582212207ae05f0220a10583d7305f4185953e2dcf486d85c2c22c847cb7e5ae72b80dec64736f6c634300080a0033",
  "immutableReferences": {},
  "source": "// SPDX-License-Identifier: MIT\r\npragma solidity >=0.4.22 <0.9.0;\r\n\r\ncontract DecentralisedWill {\r\n\r\n\r\n\r\nfunction distributeAsset(address payable _to, uint256 _num) public payable {\r\n    _to.transfer(_num);\r\n} \r\n\r\n\r\n//// Get distrubtion list - address vs % mapping\r\n//// function getMapping() public {}\r\n\r\n// // Check transaction history of the owner's accounts\r\n// // If there are any activities in the last 12-month, revert contract\r\n// // else, process with the contract\r\n// function checkActivityHisory() public {}\r\n\r\n// // Get price oracle for assets in owner's account\r\n// function getPriceOracle() public {}\r\n\r\n// // Calculate total USD value of assets in Owner's account\r\n// function getValueUSD() public {}\r\n\r\n// // Distribute asset based on will\r\n// function distributeAsset() public {}\r\n\r\n}\r\n\r\n\r\n\r\n\r\n",
  "sourcePath": "C:\\Users\\LambLamb\\consensys\\blockchain-developer-bootcamp-final-project\\contracts\\DecentralisedWill.sol",
  "compiler": {
    "name": "solc",
    "version": "0.8.10+commit.fc410830.Emscripten.clang"
  },
  "schemaVersion": "3.4.4",
  "updatedAt": "2022-01-02T18:36:58.956Z",
  "devdoc": {
    "kind": "dev",
    "methods": {},
    "version": 1
  },
  "userdoc": {
    "kind": "user",
    "methods": {},
    "version": 1
  }
}