{
  "contractName": "DecentralisedWill",
  "abi": [
    {
      "inputs": [
        {
          "internalType": "address",
          "name": "_multisig",
          "type": "address"
        },
        {
          "internalType": "address payable",
          "name": "_heir1",
          "type": "address"
        },
        {
          "internalType": "uint256",
          "name": "_portion1",
          "type": "uint256"
        },
        {
          "internalType": "address payable",
          "name": "_heir2",
          "type": "address"
        },
        {
          "internalType": "uint256",
          "name": "_portion2",
          "type": "uint256"
        }
      ],
      "stateMutability": "nonpayable",
      "type": "constructor"
    },
    {
      "anonymous": false,
      "inputs": [
        {
          "indexed": false,
          "internalType": "address",
          "name": "heir",
          "type": "address"
        },
        {
          "indexed": false,
          "internalType": "uint256",
          "name": "priorBalance",
          "type": "uint256"
        },
        {
          "indexed": false,
          "internalType": "uint256",
          "name": "heirValue",
          "type": "uint256"
        },
        {
          "indexed": false,
          "internalType": "uint256",
          "name": "postBalance",
          "type": "uint256"
        }
      ],
      "name": "Execution",
      "type": "event"
    },
    {
      "anonymous": false,
      "inputs": [
        {
          "indexed": false,
          "internalType": "address",
          "name": "heir",
          "type": "address"
        },
        {
          "indexed": false,
          "internalType": "uint256",
          "name": "priorBalance",
          "type": "uint256"
        },
        {
          "indexed": false,
          "internalType": "uint256",
          "name": "heirValue",
          "type": "uint256"
        },
        {
          "indexed": false,
          "internalType": "uint256",
          "name": "postBalance",
          "type": "uint256"
        }
      ],
      "name": "ExecutionFailure",
      "type": "event"
    },
    {
      "stateMutability": "payable",
      "type": "fallback",
      "payable": true
    },
    {
      "inputs": [],
      "name": "multisig",
      "outputs": [
        {
          "internalType": "address",
          "name": "",
          "type": "address"
        }
      ],
      "stateMutability": "view",
      "type": "function",
      "constant": true
    },
    {
      "inputs": [],
      "name": "wCount",
      "outputs": [
        {
          "internalType": "uint256",
          "name": "",
          "type": "uint256"
        }
      ],
      "stateMutability": "view",
      "type": "function",
      "constant": true
    },
    {
      "inputs": [
        {
          "internalType": "uint256",
          "name": "",
          "type": "uint256"
        }
      ],
      "name": "will",
      "outputs": [
        {
          "internalType": "address payable",
          "name": "heir",
          "type": "address"
        },
        {
          "internalType": "uint256",
          "name": "portion",
          "type": "uint256"
        }
      ],
      "stateMutability": "view",
      "type": "function",
      "constant": true
    },
    {
      "stateMutability": "payable",
      "type": "receive",
      "payable": true
    },
    {
      "inputs": [
        {
          "internalType": "uint256",
          "name": "id",
          "type": "uint256"
        }
      ],
      "name": "getHeirPortion",
      "outputs": [
        {
          "internalType": "address",
          "name": "",
          "type": "address"
        },
        {
          "internalType": "uint256",
          "name": "",
          "type": "uint256"
        }
      ],
      "stateMutability": "view",
      "type": "function",
      "constant": true
    },
    {
      "inputs": [],
      "name": "distributeAsset",
      "outputs": [],
      "stateMutability": "payable",
      "type": "function",
      "payable": true
    },
    {
      "inputs": [],
      "name": "getDistributeAssetData",
      "outputs": [
        {
          "internalType": "bytes",
          "name": "",
          "type": "bytes"
        }
      ],
      "stateMutability": "pure",
      "type": "function",
      "constant": true
    }
  ],
  "bytecode": "0x60806040523480156200001157600080fd5b5060405162000fdd38038062000fdd8339818101604052810190620000379190620002a2565b6064818462000047919062000359565b11156200008b576040517f08c379a0000000000000000000000000000000000000000000000000000000008152600401620000829062000417565b60405180910390fd5b846000806101000a81548173ffffffffffffffffffffffffffffffffffffffff021916908373ffffffffffffffffffffffffffffffffffffffff160217905550836001600080815260200190815260200160002060000160006101000a81548173ffffffffffffffffffffffffffffffffffffffff021916908373ffffffffffffffffffffffffffffffffffffffff16021790555082600160008081526020019081526020016000206001018190555081600160006001815260200190815260200160002060000160006101000a81548173ffffffffffffffffffffffffffffffffffffffff021916908373ffffffffffffffffffffffffffffffffffffffff16021790555080600160006001815260200190815260200160002060010181905550505050505062000439565b600080fd5b600073ffffffffffffffffffffffffffffffffffffffff82169050919050565b6000620001ea82620001bd565b9050919050565b620001fc81620001dd565b81146200020857600080fd5b50565b6000815190506200021c81620001f1565b92915050565b60006200022f82620001bd565b9050919050565b620002418162000222565b81146200024d57600080fd5b50565b600081519050620002618162000236565b92915050565b6000819050919050565b6200027c8162000267565b81146200028857600080fd5b50565b6000815190506200029c8162000271565b92915050565b600080600080600060a08688031215620002c157620002c0620001b8565b5b6000620002d1888289016200020b565b9550506020620002e48882890162000250565b9450506040620002f7888289016200028b565b93505060606200030a8882890162000250565b92505060806200031d888289016200028b565b9150509295509295909350565b7f4e487b7100000000000000000000000000000000000000000000000000000000600052601160045260246000fd5b6000620003668262000267565b9150620003738362000267565b9250827fffffffffffffffffffffffffffffffffffffffffffffffffffffffffffffffff03821115620003ab57620003aa6200032a565b5b828201905092915050565b600082825260208201905092915050565b7f53756d206f6620706f7274696f6e203e20313030250000000000000000000000600082015250565b6000620003ff601583620003b6565b91506200040c82620003c7565b602082019050919050565b600060208201905081810360008301526200043281620003f0565b9050919050565b610b9480620004496000396000f3fe6080604052600436106100595760003560e01c80634783c35b1461006557806367f1ffa41461009057806392ee9d03146100ce578063c8488ced146100d8578063cc328f2414610116578063df7bbf7b1461014157610060565b3661006057005b600080fd5b34801561007157600080fd5b5061007a61016c565b60405161008791906105db565b60405180910390f35b34801561009c57600080fd5b506100b760048036038101906100b29190610631565b610190565b6040516100c592919061066d565b60405180910390f35b6100d66101f6565b005b3480156100e457600080fd5b506100ff60048036038101906100fa9190610631565b610475565b60405161010d9291906106b7565b60405180910390f35b34801561012257600080fd5b5061012b6104b9565b6040516101389190610779565b60405180910390f35b34801561014d57600080fd5b5061015661054c565b604051610163919061079b565b60405180910390f35b60008054906101000a900473ffffffffffffffffffffffffffffffffffffffff1681565b60008060006001600085815260200190815260200160002060010154905060006001600086815260200190815260200160002060000160009054906101000a900473ffffffffffffffffffffffffffffffffffffffff1690508082935093505050915091565b600061020130610552565b11610241576040517f08c379a000000000000000000000000000000000000000000000000000000000815260040161023890610839565b60405180910390fd5b60008054906101000a900473ffffffffffffffffffffffffffffffffffffffff1673ffffffffffffffffffffffffffffffffffffffff163373ffffffffffffffffffffffffffffffffffffffff16146102cf576040517f08c379a00000000000000000000000000000000000000000000000000000000081526004016102c6906108cb565b60405180910390fd5b600047905060005b60028160ff1611610471576000600160008360ff16815260200190815260200160002060000160009054906101000a900473ffffffffffffffffffffffffffffffffffffffff1690506000600160008460ff168152602001908152602001600020600101549050600061034983610552565b905060006103578684610573565b905060008473ffffffffffffffffffffffffffffffffffffffff168260405161037f90610942565b60006040518083038185875af1925050503d80600081146103bc576040519150601f19603f3d011682016040523d82523d6000602084013e6103c1565b606091505b5050905060006103d086610552565b9050811561041a577fda258b3a1cbc9d5bc655b6678e93f3c6ba635acd5606063b31a09f61101d6efe8685858460405161040d94939291906109b6565b60405180910390a1610458565b7f3f6bb9cb0871ee0c636863b1d01db56792bce9968229a1cdfccc5972b97ae1d28685858460405161044f94939291906109b6565b60405180910390a15b505050505050808061046990610a37565b9150506102d7565b5050565b60016020528060005260406000206000915090508060000160009054906101000a900473ffffffffffffffffffffffffffffffffffffffff16908060010154905082565b60606040516024016104ca90610a84565b6040516020818303038152906040527f92ee9d03000000000000000000000000000000000000000000000000000000007bffffffffffffffffffffffffffffffffffffffffffffffffffffffff19166020820180517bffffffffffffffffffffffffffffffffffffffffffffffffffffffff8381831617835250505050905090565b60025481565b60008173ffffffffffffffffffffffffffffffffffffffff16319050919050565b600080606483856105849190610aa4565b61058e9190610b2d565b90508091505092915050565b600073ffffffffffffffffffffffffffffffffffffffff82169050919050565b60006105c58261059a565b9050919050565b6105d5816105ba565b82525050565b60006020820190506105f060008301846105cc565b92915050565b600080fd5b6000819050919050565b61060e816105fb565b811461061957600080fd5b50565b60008135905061062b81610605565b92915050565b600060208284031215610647576106466105f6565b5b60006106558482850161061c565b91505092915050565b610667816105fb565b82525050565b600060408201905061068260008301856105cc565b61068f602083018461065e565b9392505050565b60006106a18261059a565b9050919050565b6106b181610696565b82525050565b60006040820190506106cc60008301856106a8565b6106d9602083018461065e565b9392505050565b600081519050919050565b600082825260208201905092915050565b60005b8381101561071a5780820151818401526020810190506106ff565b83811115610729576000848401525b50505050565b6000601f19601f8301169050919050565b600061074b826106e0565b61075581856106eb565b93506107658185602086016106fc565b61076e8161072f565b840191505092915050565b600060208201905081810360008301526107938184610740565b905092915050565b60006020820190506107b0600083018461065e565b92915050565b600082825260208201905092915050565b7f436f6e7472616374206973206e6f742066756e6465642c206e6f20617373657460008201527f20746f2064697374726962757465210000000000000000000000000000000000602082015250565b6000610823602f836107b6565b915061082e826107c7565b604082019050919050565b6000602082019050818103600083015261085281610816565b9050919050565b7f53656e646572206973206e6f742064657369676e61746564206d756c7469736960008201527f672077616c6c6574000000000000000000000000000000000000000000000000602082015250565b60006108b56028836107b6565b91506108c082610859565b604082019050919050565b600060208201905081810360008301526108e4816108a8565b9050919050565b600081905092915050565b7f2000000000000000000000000000000000000000000000000000000000000000600082015250565b600061092c6001836108eb565b9150610937826108f6565b600182019050919050565b600061094d8261091f565b9150819050919050565b6000819050919050565b600061097c6109776109728461059a565b610957565b61059a565b9050919050565b600061098e82610961565b9050919050565b60006109a082610983565b9050919050565b6109b081610995565b82525050565b60006080820190506109cb60008301876109a7565b6109d8602083018661065e565b6109e5604083018561065e565b6109f2606083018461065e565b95945050505050565b7f4e487b7100000000000000000000000000000000000000000000000000000000600052601160045260246000fd5b600060ff82169050919050565b6000610a4282610a2a565b915060ff821415610a5657610a556109fb565b5b600182019050919050565b6000610a6e6001836107b6565b9150610a79826108f6565b602082019050919050565b60006020820190508181036000830152610a9d81610a61565b9050919050565b6000610aaf826105fb565b9150610aba836105fb565b9250817fffffffffffffffffffffffffffffffffffffffffffffffffffffffffffffffff0483118215151615610af357610af26109fb565b5b828202905092915050565b7f4e487b7100000000000000000000000000000000000000000000000000000000600052601260045260246000fd5b6000610b38826105fb565b9150610b43836105fb565b925082610b5357610b52610afe565b5b82820490509291505056fea26469706673582212208b912efa3d897d7a59211ff2371ae252013da2f33e1a18c4ff23ea86c3b0d69c64736f6c634300080a0033",
  "immutableReferences": {},
  "source": "// SPDX-License-Identifier: MIT\npragma solidity 0.8.10;\n\n/// @title A decentralised will that can be tailor-made to your need \n/// @author Tammy Yang\n/// @notice You can create this contract on the ethereum blockchain without letting other people know when and how you are going to distribute your wealth on-chain\n/// @dev All function calls are unit tested\n\nimport \"./Utils.sol\";\n\ncontract DecentralisedWill {\n\n    address public multisig;\n\n    struct willElement {\n        address payable heir;\n        uint portion;\n    }\n\n    mapping (uint256 => willElement) public will;\n    uint public wCount;\n\n    // inpput variable to the smart contract, decided by the will creator\n    // constructor contains critial information like who are the heir and how much % they receive\n    constructor(address _multisig, address payable _heir1, uint _portion1 , address payable _heir2  ,uint _portion2) {\n        require( _portion1 + _portion2 <= 100, 'Sum of portion > 100%');\n        multisig = _multisig;\n        will[0].heir = _heir1;\n        will[0].portion = _portion1;\n        will[1].heir = _heir2;\n        will[1].portion = _portion2;\n    }\n\n    event Execution(address heir, uint priorBalance, uint heirValue, uint postBalance) ;\n    \n    event ExecutionFailure(address heir, uint priorBalance, uint heirValue, uint postBalance) ;\n\n\n    fallback() external payable { revert(); }\n\n    receive() external payable {}\n\n    function getHeirPortion(uint id) public view returns(address, uint) { \n\n        uint _portion = will[id].portion;\n        \n        address _heir = will[id].heir;\n        \n        return (_heir, _portion);\n    \n    }\n\n\n    // Main deistibution function. Can only trigged by a specific multisig wallet \n    function distributeAsset() public payable {\n        \n        require(Utils.getBalance(address(this)) > 0, 'Contract is not funded, no asset to distribute!' );\n\n        require(msg.sender == multisig, \"Sender is not designated multisig wallet\"); //owner should be multi sig address\n        \n        uint256    balance = address(this).balance;\n\n        for(uint8 i=0; i<= 2; i++){\n\n            address payable heir = will[i].heir;\n\n            uint256 portion = will[i].portion;\n\n            uint256 priorHeirBalnace = Utils.getBalance(heir);\n             \n            uint256 heirValue = Utils.distribute(balance, portion);\n            \n            (bool success, ) = heir.call{value: heirValue}(\" \");\n\n            uint256 postHeirBalnace = Utils.getBalance(heir);\n\n        if (success)\n            emit Execution(heir, priorHeirBalnace, heirValue, postHeirBalnace);\n        else {\n            emit ExecutionFailure(heir, priorHeirBalnace, heirValue, postHeirBalnace);\n            }\n        }\n    }\n\n    // helper function to get byte call of the distribution fuction\n    function getDistributeAssetData () public pure returns(bytes memory) {\n        return  abi.encodeWithSignature(\"distributeAsset()\", \" \");\n    \n    }\n}",
  "sourcePath": "/Users/tammy.yang@coinbase.com/src/consensys/blockchain-developer-bootcamp-final-project/contracts/DecentralisedWill.sol",
  "compiler": {
    "name": "solc",
    "version": "0.8.10+commit.fc410830.Emscripten.clang"
  },
  "schemaVersion": "3.4.3",
  "updatedAt": "2022-01-10T11:43:36.642Z",
  "networkType": "ethereum",
  "devdoc": {
    "kind": "dev",
    "methods": {},
    "version": 1
  },
  "userdoc": {
    "kind": "user",
    "methods": {},
    "version": 1
  }
}