{
  "contractName": "DecentralisedWill",
  "abi": [
    {
      "inputs": [
        {
          "internalType": "address",
          "name": "_multisig",
          "type": "address"
        }
      ],
      "stateMutability": "nonpayable",
      "type": "constructor"
    },
    {
      "anonymous": false,
      "inputs": [
        {
          "indexed": false,
          "internalType": "address",
          "name": "heir",
          "type": "address"
        },
        {
          "indexed": false,
          "internalType": "uint256",
          "name": "priorBalance",
          "type": "uint256"
        },
        {
          "indexed": false,
          "internalType": "uint256",
          "name": "heirValue",
          "type": "uint256"
        },
        {
          "indexed": false,
          "internalType": "uint256",
          "name": "postBalance",
          "type": "uint256"
        }
      ],
      "name": "Execution",
      "type": "event"
    },
    {
      "anonymous": false,
      "inputs": [
        {
          "indexed": false,
          "internalType": "address",
          "name": "heir",
          "type": "address"
        },
        {
          "indexed": false,
          "internalType": "uint256",
          "name": "priorBalance",
          "type": "uint256"
        },
        {
          "indexed": false,
          "internalType": "uint256",
          "name": "heirValue",
          "type": "uint256"
        },
        {
          "indexed": false,
          "internalType": "uint256",
          "name": "postBalance",
          "type": "uint256"
        }
      ],
      "name": "ExecutionFailure",
      "type": "event"
    },
    {
      "stateMutability": "payable",
      "type": "fallback",
      "payable": true
    },
    {
      "inputs": [],
      "name": "multisig",
      "outputs": [
        {
          "internalType": "address",
          "name": "",
          "type": "address"
        }
      ],
      "stateMutability": "view",
      "type": "function",
      "constant": true
    },
    {
      "inputs": [],
      "name": "wCount",
      "outputs": [
        {
          "internalType": "uint256",
          "name": "",
          "type": "uint256"
        }
      ],
      "stateMutability": "view",
      "type": "function",
      "constant": true
    },
    {
      "inputs": [
        {
          "internalType": "uint256",
          "name": "",
          "type": "uint256"
        }
      ],
      "name": "will",
      "outputs": [
        {
          "internalType": "address",
          "name": "heir",
          "type": "address"
        },
        {
          "internalType": "uint256",
          "name": "portion",
          "type": "uint256"
        }
      ],
      "stateMutability": "view",
      "type": "function",
      "constant": true
    },
    {
      "stateMutability": "payable",
      "type": "receive",
      "payable": true
    },
    {
      "inputs": [
        {
          "internalType": "uint256",
          "name": "id",
          "type": "uint256"
        }
      ],
      "name": "getHeirPortion",
      "outputs": [
        {
          "internalType": "address",
          "name": "",
          "type": "address"
        },
        {
          "internalType": "uint256",
          "name": "",
          "type": "uint256"
        }
      ],
      "stateMutability": "view",
      "type": "function",
      "constant": true
    },
    {
      "inputs": [],
      "name": "distributeAsset",
      "outputs": [],
      "stateMutability": "nonpayable",
      "type": "function"
    },
    {
      "inputs": [],
      "name": "getDistributeAssetData",
      "outputs": [
        {
          "internalType": "bytes",
          "name": "",
          "type": "bytes"
        }
      ],
      "stateMutability": "pure",
      "type": "function",
      "constant": true
    }
  ],
  "bytecode": "0x608060405234801561001057600080fd5b50604051610d7a380380610d7a833981810160405281019061003291906101e7565b806000806101000a81548173ffffffffffffffffffffffffffffffffffffffff021916908373ffffffffffffffffffffffffffffffffffffffff16021790555073ed20a87d97c5ac762c585f0e15ecb95214951ec96001600080815260200190815260200160002060000160006101000a81548173ffffffffffffffffffffffffffffffffffffffff021916908373ffffffffffffffffffffffffffffffffffffffff160217905550604660016000808152602001908152602001600020600101819055507369793e3955956173ba297addca7670c2e639211c600160006001815260200190815260200160002060000160006101000a81548173ffffffffffffffffffffffffffffffffffffffff021916908373ffffffffffffffffffffffffffffffffffffffff160217905550601e60016000600181526020019081526020016000206001018190555050610214565b600080fd5b600073ffffffffffffffffffffffffffffffffffffffff82169050919050565b60006101b482610189565b9050919050565b6101c4816101a9565b81146101cf57600080fd5b50565b6000815190506101e1816101bb565b92915050565b6000602082840312156101fd576101fc610184565b5b600061020b848285016101d2565b91505092915050565b610b57806102236000396000f3fe6080604052600436106100595760003560e01c80634783c35b1461006557806367f1ffa41461009057806392ee9d03146100ce578063c8488ced146100e5578063cc328f2414610123578063df7bbf7b1461014e57610060565b3661006057005b600080fd5b34801561007157600080fd5b5061007a610179565b60405161008791906105e8565b60405180910390f35b34801561009c57600080fd5b506100b760048036038101906100b2919061063e565b61019d565b6040516100c592919061067a565b60405180910390f35b3480156100da57600080fd5b506100e3610203565b005b3480156100f157600080fd5b5061010c6004803603810190610107919061063e565b610482565b60405161011a92919061067a565b60405180910390f35b34801561012f57600080fd5b506101386104c6565b604051610145919061073c565b60405180910390f35b34801561015a57600080fd5b50610163610559565b604051610170919061075e565b60405180910390f35b60008054906101000a900473ffffffffffffffffffffffffffffffffffffffff1681565b60008060006001600085815260200190815260200160002060010154905060006001600086815260200190815260200160002060000160009054906101000a900473ffffffffffffffffffffffffffffffffffffffff1690508082935093505050915091565b600061020e3061055f565b1161024e576040517f08c379a0000000000000000000000000000000000000000000000000000000008152600401610245906107fc565b60405180910390fd5b60008054906101000a900473ffffffffffffffffffffffffffffffffffffffff1673ffffffffffffffffffffffffffffffffffffffff163373ffffffffffffffffffffffffffffffffffffffff16146102dc576040517f08c379a00000000000000000000000000000000000000000000000000000000081526004016102d39061088e565b60405180910390fd5b600047905060005b60028160ff161161047e576000600160008360ff16815260200190815260200160002060000160009054906101000a900473ffffffffffffffffffffffffffffffffffffffff1690506000600160008460ff16815260200190815260200160002060010154905060006103568361055f565b905060006103648684610580565b905060008473ffffffffffffffffffffffffffffffffffffffff168260405161038c90610905565b60006040518083038185875af1925050503d80600081146103c9576040519150601f19603f3d011682016040523d82523d6000602084013e6103ce565b606091505b5050905060006103dd8661055f565b90508115610427577fda258b3a1cbc9d5bc655b6678e93f3c6ba635acd5606063b31a09f61101d6efe8685858460405161041a9493929190610979565b60405180910390a1610465565b7f3f6bb9cb0871ee0c636863b1d01db56792bce9968229a1cdfccc5972b97ae1d28685858460405161045c9493929190610979565b60405180910390a15b5050505050508080610476906109fa565b9150506102e4565b5050565b60016020528060005260406000206000915090508060000160009054906101000a900473ffffffffffffffffffffffffffffffffffffffff16908060010154905082565b60606040516024016104d790610a47565b6040516020818303038152906040527f92ee9d03000000000000000000000000000000000000000000000000000000007bffffffffffffffffffffffffffffffffffffffffffffffffffffffff19166020820180517bffffffffffffffffffffffffffffffffffffffffffffffffffffffff8381831617835250505050905090565b60025481565b60008173ffffffffffffffffffffffffffffffffffffffff16319050919050565b600080606483856105919190610a67565b61059b9190610af0565b90508091505092915050565b600073ffffffffffffffffffffffffffffffffffffffff82169050919050565b60006105d2826105a7565b9050919050565b6105e2816105c7565b82525050565b60006020820190506105fd60008301846105d9565b92915050565b600080fd5b6000819050919050565b61061b81610608565b811461062657600080fd5b50565b60008135905061063881610612565b92915050565b60006020828403121561065457610653610603565b5b600061066284828501610629565b91505092915050565b61067481610608565b82525050565b600060408201905061068f60008301856105d9565b61069c602083018461066b565b9392505050565b600081519050919050565b600082825260208201905092915050565b60005b838110156106dd5780820151818401526020810190506106c2565b838111156106ec576000848401525b50505050565b6000601f19601f8301169050919050565b600061070e826106a3565b61071881856106ae565b93506107288185602086016106bf565b610731816106f2565b840191505092915050565b600060208201905081810360008301526107568184610703565b905092915050565b6000602082019050610773600083018461066b565b92915050565b600082825260208201905092915050565b7f436f6e7472616374206973206e6f742066756e6465642c206e6f20617373657460008201527f20746f2064697374726962757465210000000000000000000000000000000000602082015250565b60006107e6602f83610779565b91506107f18261078a565b604082019050919050565b60006020820190508181036000830152610815816107d9565b9050919050565b7f53656e646572206973206e6f742064657369676e61746564206d756c7469736960008201527f672077616c6c6574000000000000000000000000000000000000000000000000602082015250565b6000610878602883610779565b91506108838261081c565b604082019050919050565b600060208201905081810360008301526108a78161086b565b9050919050565b600081905092915050565b7f2000000000000000000000000000000000000000000000000000000000000000600082015250565b60006108ef6001836108ae565b91506108fa826108b9565b600182019050919050565b6000610910826108e2565b9150819050919050565b6000819050919050565b600061093f61093a610935846105a7565b61091a565b6105a7565b9050919050565b600061095182610924565b9050919050565b600061096382610946565b9050919050565b61097381610958565b82525050565b600060808201905061098e600083018761096a565b61099b602083018661066b565b6109a8604083018561066b565b6109b5606083018461066b565b95945050505050565b7f4e487b7100000000000000000000000000000000000000000000000000000000600052601160045260246000fd5b600060ff82169050919050565b6000610a05826109ed565b915060ff821415610a1957610a186109be565b5b600182019050919050565b6000610a31600183610779565b9150610a3c826108b9565b602082019050919050565b60006020820190508181036000830152610a6081610a24565b9050919050565b6000610a7282610608565b9150610a7d83610608565b9250817fffffffffffffffffffffffffffffffffffffffffffffffffffffffffffffffff0483118215151615610ab657610ab56109be565b5b828202905092915050565b7f4e487b7100000000000000000000000000000000000000000000000000000000600052601260045260246000fd5b6000610afb82610608565b9150610b0683610608565b925082610b1657610b15610ac1565b5b82820490509291505056fea2646970667358221220b7840d05b06af32e20e2f20c3152643e715bff08f4fa1745aff0207fef19f71d64736f6c634300080a0033",
  "immutableReferences": {},
  "source": "// SPDX-License-Identifier: MIT\r\npragma solidity 0.8.10;\r\n\r\nimport \"./Utils.sol\";\r\n\r\ncontract DecentralisedWill {\r\n\r\n    address public multisig;\r\n\r\n    struct willElement {\r\n        address heir;\r\n        uint portion;\r\n    }\r\n\r\n    mapping (uint256 => willElement) public will;\r\n    uint public wCount;\r\n\r\n    constructor(address _multisig) {\r\n        multisig = _multisig;\r\n        will[0].heir = 0xeD20A87D97C5aC762C585F0e15eCB95214951eC9;\r\n        will[0].portion = 70;\r\n        will[1].heir = 0x69793e3955956173Ba297ADDCA7670c2E639211C;\r\n        will[1].portion = 30;\r\n    }\r\n\r\n    event Execution(address heir, uint priorBalance, uint heirValue, uint postBalance) ;\r\n    \r\n    event ExecutionFailure(address heir, uint priorBalance, uint heirValue, uint postBalance) ;\r\n\r\n\r\n    fallback() external payable { revert(); }\r\n\r\n    receive() external payable {}\r\n\r\n    function getHeirPortion(uint id) public view returns(address, uint) { \r\n\r\n        uint _portion = will[id].portion;\r\n        \r\n        address _heir = will[id].heir;\r\n        \r\n        return (_heir, _portion);\r\n    \r\n    }\r\n\r\n    function distributeAsset() external {\r\n        \r\n        require(Utils.getBalance(address(this)) > 0, 'Contract is not funded, no asset to distribute!' );\r\n\r\n        require(msg.sender == multisig, \"Sender is not designated multisig wallet\"); //owner should be multi sig address\r\n        \r\n        uint256    balance = address(this).balance;\r\n\r\n        for(uint8 i=0; i<= 2; i++){\r\n\r\n            address payable heir   = payable(will[i].heir);\r\n\r\n            uint256 portion = will[i].portion;\r\n\r\n            uint256 priorHeirBalnace = Utils.getBalance(heir);\r\n             \r\n            uint256 heirValue = Utils.distribute(balance, portion);\r\n            \r\n            (bool success, ) = heir.call{value: heirValue}(\" \");\r\n\r\n            uint256 postHeirBalnace = Utils.getBalance(heir);\r\n\r\n        if (success)\r\n            emit Execution(heir, priorHeirBalnace, heirValue, postHeirBalnace);\r\n        else {\r\n            emit ExecutionFailure(heir, priorHeirBalnace, heirValue, postHeirBalnace);\r\n            }\r\n        }\r\n    }\r\n\r\n    function getDistributeAssetData () public pure returns(bytes memory) {\r\n        return  abi.encodeWithSignature(\"distributeAsset()\", \" \");\r\n    \r\n    }\r\n}\r\n\r\n\r\n//// Get distrubtion list - address vs % mapping\r\n//// function getMapping() public {}\r\n\r\n// // Check transaction history of the owner's accounts\r\n// // If there are any activities in the last 12-month, revert contract\r\n// // else, process with the contract\r\n// function checkActivityHisory() public {}\r\n\r\n// // Get price oracle for assets in owner's account\r\n// function getPriceOracle() public {}\r\n\r\n// // Calculate total USD value of assets in Owner's account\r\n// function getValueUSD() public {}\r\n\r\n// // Distribute asset based on will\r\n// function distributeAsset() public {}\r\n\r\n\r\n\r\n\r\n\r\n\r\n",
  "sourcePath": "C:\\Users\\LambLamb\\consensys\\blockchain-developer-bootcamp-final-project\\contracts\\DecentralisedWill.sol",
  "compiler": {
    "name": "solc",
    "version": "0.8.10+commit.fc410830.Emscripten.clang"
  },
  "schemaVersion": "3.4.4",
  "updatedAt": "2022-01-08T23:30:31.089Z",
  "networkType": "ethereum",
  "devdoc": {
    "kind": "dev",
    "methods": {},
    "version": 1
  },
  "userdoc": {
    "kind": "user",
    "methods": {},
    "version": 1
  }
}