{
  "contractName": "MultiSig",
  "abi": [
    {
      "inputs": [
        {
          "internalType": "address[]",
          "name": "_owners",
          "type": "address[]"
        },
        {
          "internalType": "uint256",
          "name": "_required",
          "type": "uint256"
        },
        {
          "internalType": "uint256",
          "name": "_waitBlock",
          "type": "uint256"
        },
        {
          "internalType": "address payable",
          "name": "_addressWithdraw",
          "type": "address"
        }
      ],
      "stateMutability": "nonpayable",
      "type": "constructor"
    },
    {
      "anonymous": false,
      "inputs": [
        {
          "indexed": true,
          "internalType": "address",
          "name": "sender",
          "type": "address"
        },
        {
          "indexed": true,
          "internalType": "uint256",
          "name": "transactionId",
          "type": "uint256"
        }
      ],
      "name": "Confirmation",
      "type": "event"
    },
    {
      "anonymous": false,
      "inputs": [
        {
          "indexed": true,
          "internalType": "address",
          "name": "sender",
          "type": "address"
        },
        {
          "indexed": false,
          "internalType": "uint256",
          "name": "value",
          "type": "uint256"
        }
      ],
      "name": "Deposit",
      "type": "event"
    },
    {
      "anonymous": false,
      "inputs": [
        {
          "indexed": true,
          "internalType": "address",
          "name": "destination",
          "type": "address"
        },
        {
          "indexed": true,
          "internalType": "uint256",
          "name": "value",
          "type": "uint256"
        },
        {
          "indexed": true,
          "internalType": "uint256",
          "name": "transactionId",
          "type": "uint256"
        }
      ],
      "name": "Execution",
      "type": "event"
    },
    {
      "anonymous": false,
      "inputs": [
        {
          "indexed": true,
          "internalType": "address",
          "name": "destination",
          "type": "address"
        },
        {
          "indexed": true,
          "internalType": "uint256",
          "name": "value",
          "type": "uint256"
        },
        {
          "indexed": true,
          "internalType": "uint256",
          "name": "transactionId",
          "type": "uint256"
        }
      ],
      "name": "ExecutionFailure",
      "type": "event"
    },
    {
      "anonymous": false,
      "inputs": [
        {
          "indexed": true,
          "internalType": "address",
          "name": "sender",
          "type": "address"
        },
        {
          "indexed": true,
          "internalType": "uint256",
          "name": "curentBlock",
          "type": "uint256"
        },
        {
          "indexed": false,
          "internalType": "uint256",
          "name": "expectedBlock",
          "type": "uint256"
        }
      ],
      "name": "ExecutionLocked",
      "type": "event"
    },
    {
      "anonymous": false,
      "inputs": [
        {
          "indexed": true,
          "internalType": "uint256",
          "name": "transactionId",
          "type": "uint256"
        }
      ],
      "name": "Submission",
      "type": "event"
    },
    {
      "anonymous": false,
      "inputs": [
        {
          "indexed": false,
          "internalType": "address",
          "name": "withdrawAddress",
          "type": "address"
        },
        {
          "indexed": false,
          "internalType": "uint256",
          "name": "contractBalance",
          "type": "uint256"
        }
      ],
      "name": "WithdrawFail",
      "type": "event"
    },
    {
      "anonymous": false,
      "inputs": [
        {
          "indexed": false,
          "internalType": "address",
          "name": "withdrawAddress",
          "type": "address"
        },
        {
          "indexed": false,
          "internalType": "uint256",
          "name": "contractBalance",
          "type": "uint256"
        }
      ],
      "name": "WithdrawSuccess",
      "type": "event"
    },
    {
      "stateMutability": "payable",
      "type": "fallback",
      "payable": true
    },
    {
      "inputs": [
        {
          "internalType": "uint256",
          "name": "",
          "type": "uint256"
        },
        {
          "internalType": "address",
          "name": "",
          "type": "address"
        }
      ],
      "name": "confirmations",
      "outputs": [
        {
          "internalType": "bool",
          "name": "",
          "type": "bool"
        }
      ],
      "stateMutability": "view",
      "type": "function",
      "constant": true
    },
    {
      "inputs": [],
      "name": "executionDate",
      "outputs": [
        {
          "internalType": "uint256",
          "name": "",
          "type": "uint256"
        }
      ],
      "stateMutability": "view",
      "type": "function",
      "constant": true
    },
    {
      "inputs": [
        {
          "internalType": "address",
          "name": "",
          "type": "address"
        }
      ],
      "name": "isOwner",
      "outputs": [
        {
          "internalType": "bool",
          "name": "",
          "type": "bool"
        }
      ],
      "stateMutability": "view",
      "type": "function",
      "constant": true
    },
    {
      "inputs": [
        {
          "internalType": "uint256",
          "name": "",
          "type": "uint256"
        }
      ],
      "name": "owners",
      "outputs": [
        {
          "internalType": "address",
          "name": "",
          "type": "address"
        }
      ],
      "stateMutability": "view",
      "type": "function",
      "constant": true
    },
    {
      "inputs": [],
      "name": "required",
      "outputs": [
        {
          "internalType": "uint256",
          "name": "",
          "type": "uint256"
        }
      ],
      "stateMutability": "view",
      "type": "function",
      "constant": true
    },
    {
      "inputs": [],
      "name": "transactionCount",
      "outputs": [
        {
          "internalType": "uint256",
          "name": "",
          "type": "uint256"
        }
      ],
      "stateMutability": "view",
      "type": "function",
      "constant": true
    },
    {
      "inputs": [
        {
          "internalType": "uint256",
          "name": "",
          "type": "uint256"
        }
      ],
      "name": "transactions",
      "outputs": [
        {
          "internalType": "bool",
          "name": "executed",
          "type": "bool"
        },
        {
          "internalType": "address",
          "name": "destination",
          "type": "address"
        },
        {
          "internalType": "uint256",
          "name": "value",
          "type": "uint256"
        },
        {
          "internalType": "bytes",
          "name": "data",
          "type": "bytes"
        },
        {
          "internalType": "uint256",
          "name": "height",
          "type": "uint256"
        },
        {
          "internalType": "uint256",
          "name": "signum",
          "type": "uint256"
        }
      ],
      "stateMutability": "view",
      "type": "function",
      "constant": true
    },
    {
      "inputs": [],
      "name": "waitBlock",
      "outputs": [
        {
          "internalType": "uint256",
          "name": "",
          "type": "uint256"
        }
      ],
      "stateMutability": "view",
      "type": "function",
      "constant": true
    },
    {
      "stateMutability": "payable",
      "type": "receive",
      "payable": true
    },
    {
      "inputs": [
        {
          "internalType": "address",
          "name": "destination",
          "type": "address"
        },
        {
          "internalType": "uint256",
          "name": "value",
          "type": "uint256"
        },
        {
          "internalType": "bytes",
          "name": "data",
          "type": "bytes"
        }
      ],
      "name": "submitTransaction",
      "outputs": [
        {
          "internalType": "uint256",
          "name": "transactionId",
          "type": "uint256"
        }
      ],
      "stateMutability": "nonpayable",
      "type": "function"
    },
    {
      "inputs": [
        {
          "internalType": "uint256",
          "name": "transactionId",
          "type": "uint256"
        }
      ],
      "name": "confirmTransaction",
      "outputs": [],
      "stateMutability": "nonpayable",
      "type": "function"
    },
    {
      "inputs": [
        {
          "internalType": "uint256",
          "name": "transactionId",
          "type": "uint256"
        }
      ],
      "name": "executeTransaction",
      "outputs": [],
      "stateMutability": "nonpayable",
      "type": "function"
    },
    {
      "inputs": [],
      "name": "withdraw",
      "outputs": [],
      "stateMutability": "nonpayable",
      "type": "function"
    }
  ],
  "bytecode": "0x60806040523480156200001157600080fd5b506040516200208238038062002082833981810160405281019062000037919062000489565b83518381811180620000495750600081145b80620000555750600082145b156200006057600080fd5b60005b8651811015620000f8576001600660008984815181106200008957620000886200051a565b5b602002602001015173ffffffffffffffffffffffffffffffffffffffff1673ffffffffffffffffffffffffffffffffffffffff16815260200190815260200160002060006101000a81548160ff0219169083151502179055508080620000ef9062000578565b91505062000063565b508560009080519060200190620001119291906200016d565b50846002819055508360038190555082600160006101000a81548173ffffffffffffffffffffffffffffffffffffffff021916908373ffffffffffffffffffffffffffffffffffffffff160217905550505050505050620005c6565b828054828255906000526020600020908101928215620001e9579160200282015b82811115620001e85782518260006101000a81548173ffffffffffffffffffffffffffffffffffffffff021916908373ffffffffffffffffffffffffffffffffffffffff160217905550916020019190600101906200018e565b5b509050620001f89190620001fc565b5090565b5b8082111562000217576000816000905550600101620001fd565b5090565b6000604051905090565b600080fd5b600080fd5b600080fd5b6000601f19601f8301169050919050565b7f4e487b7100000000000000000000000000000000000000000000000000000000600052604160045260246000fd5b6200027f8262000234565b810181811067ffffffffffffffff82111715620002a157620002a062000245565b5b80604052505050565b6000620002b66200021b565b9050620002c4828262000274565b919050565b600067ffffffffffffffff821115620002e757620002e662000245565b5b602082029050602081019050919050565b600080fd5b600073ffffffffffffffffffffffffffffffffffffffff82169050919050565b60006200032a82620002fd565b9050919050565b6200033c816200031d565b81146200034857600080fd5b50565b6000815190506200035c8162000331565b92915050565b6000620003796200037384620002c9565b620002aa565b905080838252602082019050602084028301858111156200039f576200039e620002f8565b5b835b81811015620003cc5780620003b788826200034b565b845260208401935050602081019050620003a1565b5050509392505050565b600082601f830112620003ee57620003ed6200022f565b5b81516200040084826020860162000362565b91505092915050565b6000819050919050565b6200041e8162000409565b81146200042a57600080fd5b50565b6000815190506200043e8162000413565b92915050565b60006200045182620002fd565b9050919050565b620004638162000444565b81146200046f57600080fd5b50565b600081519050620004838162000458565b92915050565b60008060008060808587031215620004a657620004a562000225565b5b600085015167ffffffffffffffff811115620004c757620004c66200022a565b5b620004d587828801620003d6565b9450506020620004e8878288016200042d565b9350506040620004fb878288016200042d565b92505060606200050e8782880162000472565b91505092959194509250565b7f4e487b7100000000000000000000000000000000000000000000000000000000600052603260045260246000fd5b7f4e487b7100000000000000000000000000000000000000000000000000000000600052601160045260246000fd5b6000620005858262000409565b91507fffffffffffffffffffffffffffffffffffffffffffffffffffffffffffffffff821415620005bb57620005ba62000549565b5b600182019050919050565b611aac80620005d66000396000f3fe6080604052600436106100ab5760003560e01c8063a761d1b611610064578063a761d1b61461024a578063b77bf60014610275578063c01a8c84146102a0578063c6427474146102c9578063dc8452cd14610306578063ee22610b14610331576100b2565b8063025e7c271461010f5780632f54bf6e1461014c5780633411c81c146101895780633ccfd60b146101c65780639ace38c2146101dd578063a45365d31461021f576100b2565b366100b257005b600034111561010a573373ffffffffffffffffffffffffffffffffffffffff167fe1fffcc4923d04b559f4d29a8bfc6cda04eb5b0d3c460751c2402c5c5cc9109c346040516101019190611088565b60405180910390a25b600080fd5b34801561011b57600080fd5b50610136600480360381019061013191906110e3565b61035a565b6040516101439190611151565b60405180910390f35b34801561015857600080fd5b50610173600480360381019061016e9190611198565b610399565b60405161018091906111e0565b60405180910390f35b34801561019557600080fd5b506101b060048036038101906101ab91906111fb565b6103b9565b6040516101bd91906111e0565b60405180910390f35b3480156101d257600080fd5b506101db6103e8565b005b3480156101e957600080fd5b5061020460048036038101906101ff91906110e3565b6105cb565b604051610216969594939291906112d4565b60405180910390f35b34801561022b57600080fd5b506102346106bc565b6040516102419190611088565b60405180910390f35b34801561025657600080fd5b5061025f6106c2565b60405161026c9190611088565b60405180910390f35b34801561028157600080fd5b5061028a6106c8565b6040516102979190611088565b60405180910390f35b3480156102ac57600080fd5b506102c760048036038101906102c291906110e3565b6106ce565b005b3480156102d557600080fd5b506102f060048036038101906102eb9190611471565b61095d565b6040516102fd9190611088565b60405180910390f35b34801561031257600080fd5b5061031b610a09565b6040516103289190611088565b60405180910390f35b34801561033d57600080fd5b50610358600480360381019061035391906110e3565b610a0f565b005b6000818154811061036a57600080fd5b906000526020600020016000915054906101000a900473ffffffffffffffffffffffffffffffffffffffff1681565b60066020528060005260406000206000915054906101000a900460ff1681565b60086020528160005260406000206020528060005260406000206000915091509054906101000a900460ff1681565b600160009054906101000a900473ffffffffffffffffffffffffffffffffffffffff1673ffffffffffffffffffffffffffffffffffffffff163373ffffffffffffffffffffffffffffffffffffffff1614610478576040517f08c379a000000000000000000000000000000000000000000000000000000000815260040161046f9061153d565b60405180910390fd5b6000600160009054906101000a900473ffffffffffffffffffffffffffffffffffffffff1673ffffffffffffffffffffffffffffffffffffffff16476040516104c0906115b4565b60006040518083038185875af1925050503d80600081146104fd576040519150601f19603f3d011682016040523d82523d6000602084013e610502565b606091505b50509050801561056c577f95e1b0070dbccc052f124fa5143644dca4cc74c53bf1d0fe68ff7295f61cdc0c600160009054906101000a900473ffffffffffffffffffffffffffffffffffffffff164760405161055f929190611628565b60405180910390a16105c8565b7f67079857ed5dbe37f84d8b9a528567e7fa47512439b74fb1f7c7d9b76ab4a34e600160009054906101000a900473ffffffffffffffffffffffffffffffffffffffff16476040516105bf929190611628565b60405180910390a15b50565b60076020528060005260406000206000915090508060000160009054906101000a900460ff16908060000160019054906101000a900473ffffffffffffffffffffffffffffffffffffffff169080600101549080600201805461062d90611680565b80601f016020809104026020016040519081016040528092919081815260200182805461065990611680565b80156106a65780601f1061067b576101008083540402835291602001916106a6565b820191906000526020600020905b81548152906001019060200180831161068957829003601f168201915b5050505050908060030154908060040154905086565b60035481565b60055481565b60045481565b600660003373ffffffffffffffffffffffffffffffffffffffff1673ffffffffffffffffffffffffffffffffffffffff16815260200190815260200160002060009054906101000a900460ff1661075a576040517f08c379a0000000000000000000000000000000000000000000000000000000008152600401610751906116fe565b60405180910390fd5b600073ffffffffffffffffffffffffffffffffffffffff166007600083815260200190815260200160002060000160019054906101000a900473ffffffffffffffffffffffffffffffffffffffff1673ffffffffffffffffffffffffffffffffffffffff161415610800576040517f08c379a00000000000000000000000000000000000000000000000000000000081526004016107f79061176a565b60405180910390fd5b600015156008600083815260200190815260200160002060003373ffffffffffffffffffffffffffffffffffffffff1673ffffffffffffffffffffffffffffffffffffffff16815260200190815260200160002060009054906101000a900460ff161515146108a4576040517f08c379a000000000000000000000000000000000000000000000000000000000815260040161089b906117d6565b60405180910390fd5b60016008600083815260200190815260200160002060003373ffffffffffffffffffffffffffffffffffffffff1673ffffffffffffffffffffffffffffffffffffffff16815260200190815260200160002060006101000a81548160ff021916908315150217905550803373ffffffffffffffffffffffffffffffffffffffff167f4a504a94899432a9846e1aa406dceb1bcfd538bb839071d49d1e5e23f5be30ef60405160405180910390a361095a81610a0f565b50565b6000600660003373ffffffffffffffffffffffffffffffffffffffff1673ffffffffffffffffffffffffffffffffffffffff16815260200190815260200160002060009054906101000a900460ff166109eb576040517f08c379a00000000000000000000000000000000000000000000000000000000081526004016109e290611842565b60405180910390fd5b6109f784848443610d5b565b9050610a02816106ce565b9392505050565b60025481565b600015156007600083815260200190815260200160002060000160009054906101000a900460ff16151514610a79576040517f08c379a0000000000000000000000000000000000000000000000000000000008152600401610a70906118ae565b60405180910390fd5b610a8281610eb0565b15610d58576000600760008381526020019081526020016000209050610aaf816003015460035443610fa7565b15610c6f5760018160000160006101000a81548160ff02191690831515021790555060008160000160019054906101000a900473ffffffffffffffffffffffffffffffffffffffff1673ffffffffffffffffffffffffffffffffffffffff164783600201604051610b209190611962565b60006040518083038185875af1925050503d8060008114610b5d576040519150601f19603f3d011682016040523d82523d6000602084013e610b62565b606091505b505090508015610bde578282600101548360000160019054906101000a900473ffffffffffffffffffffffffffffffffffffffff1673ffffffffffffffffffffffffffffffffffffffff167f3a79215c35280c50516adc051697ed94f955e0e43c5c646d59d0fc62b5254cb460405160405180910390a4610c69565b8282600101548360000160019054906101000a900473ffffffffffffffffffffffffffffffffffffffff1673ffffffffffffffffffffffffffffffffffffffff167f8d24b020e7ba900ea81a875f9c7462c05ab35f3b71b19611e99f86ef00560e7460405160405180910390a460008260000160006101000a81548160ff0219169083151502179055505b50610d56565b433373ffffffffffffffffffffffffffffffffffffffff167f487fc7f3fcfc4303cc8b9779a3116e0f225ab0eaa4267eec538c1412fbc6c83f6003548460030154610cba91906119a8565b604051610cc79190611088565b60405180910390a360008160000160006101000a81548160ff02191690831515021790555060006008600084815260200190815260200160002060003373ffffffffffffffffffffffffffffffffffffffff1673ffffffffffffffffffffffffffffffffffffffff16815260200190815260200160002060006101000a81548160ff0219169083151502179055505b505b50565b600060045490506040518060c001604052806000151581526020018673ffffffffffffffffffffffffffffffffffffffff16815260200185815260200184815260200183815260200160018152506007600083815260200190815260200160002060008201518160000160006101000a81548160ff02191690831515021790555060208201518160000160016101000a81548173ffffffffffffffffffffffffffffffffffffffff021916908373ffffffffffffffffffffffffffffffffffffffff160217905550604082015181600101556060820151816002019080519060200190610e49929190610fcc565b506080820151816003015560a08201518160040155905050600160046000828254610e7491906119a8565b92505081905550807fc0ba8fe4b176c1714197d43b9cc6bcf797a4a7461c5fe8d0ef6e184ae7601e5160405160405180910390a2949350505050565b6000806000905060005b600080549050811015610f9f57600860008581526020019081526020016000206000808381548110610eef57610eee6119fe565b5b9060005260206000200160009054906101000a900473ffffffffffffffffffffffffffffffffffffffff1673ffffffffffffffffffffffffffffffffffffffff1673ffffffffffffffffffffffffffffffffffffffff16815260200190815260200160002060009054906101000a900460ff1615610f7757600182610f7491906119a8565b91505b600254821415610f8c57600192505050610fa2565b8080610f9790611a2d565b915050610eba565b50505b919050565b60008383610fb591906119a8565b8210610fc45760019050610fc5565b5b9392505050565b828054610fd890611680565b90600052602060002090601f016020900481019282610ffa5760008555611041565b82601f1061101357805160ff1916838001178555611041565b82800160010185558215611041579182015b82811115611040578251825591602001919060010190611025565b5b50905061104e9190611052565b5090565b5b8082111561106b576000816000905550600101611053565b5090565b6000819050919050565b6110828161106f565b82525050565b600060208201905061109d6000830184611079565b92915050565b6000604051905090565b600080fd5b600080fd5b6110c08161106f565b81146110cb57600080fd5b50565b6000813590506110dd816110b7565b92915050565b6000602082840312156110f9576110f86110ad565b5b6000611107848285016110ce565b91505092915050565b600073ffffffffffffffffffffffffffffffffffffffff82169050919050565b600061113b82611110565b9050919050565b61114b81611130565b82525050565b60006020820190506111666000830184611142565b92915050565b61117581611130565b811461118057600080fd5b50565b6000813590506111928161116c565b92915050565b6000602082840312156111ae576111ad6110ad565b5b60006111bc84828501611183565b91505092915050565b60008115159050919050565b6111da816111c5565b82525050565b60006020820190506111f560008301846111d1565b92915050565b60008060408385031215611212576112116110ad565b5b6000611220858286016110ce565b925050602061123185828601611183565b9150509250929050565b600081519050919050565b600082825260208201905092915050565b60005b8381101561127557808201518184015260208101905061125a565b83811115611284576000848401525b50505050565b6000601f19601f8301169050919050565b60006112a68261123b565b6112b08185611246565b93506112c0818560208601611257565b6112c98161128a565b840191505092915050565b600060c0820190506112e960008301896111d1565b6112f66020830188611142565b6113036040830187611079565b8181036060830152611315818661129b565b90506113246080830185611079565b61133160a0830184611079565b979650505050505050565b600080fd5b600080fd5b7f4e487b7100000000000000000000000000000000000000000000000000000000600052604160045260246000fd5b61137e8261128a565b810181811067ffffffffffffffff8211171561139d5761139c611346565b5b80604052505050565b60006113b06110a3565b90506113bc8282611375565b919050565b600067ffffffffffffffff8211156113dc576113db611346565b5b6113e58261128a565b9050602081019050919050565b82818337600083830152505050565b600061141461140f846113c1565b6113a6565b9050828152602081018484840111156114305761142f611341565b5b61143b8482856113f2565b509392505050565b600082601f8301126114585761145761133c565b5b8135611468848260208601611401565b91505092915050565b60008060006060848603121561148a576114896110ad565b5b600061149886828701611183565b93505060206114a9868287016110ce565b925050604084013567ffffffffffffffff8111156114ca576114c96110b2565b5b6114d686828701611443565b9150509250925092565b600082825260208201905092915050565b7f7700000000000000000000000000000000000000000000000000000000000000600082015250565b60006115276001836114e0565b9150611532826114f1565b602082019050919050565b600060208201905081810360008301526115568161151a565b9050919050565b600081905092915050565b7f2000000000000000000000000000000000000000000000000000000000000000600082015250565b600061159e60018361155d565b91506115a982611568565b600182019050919050565b60006115bf82611591565b9150819050919050565b6000819050919050565b60006115ee6115e96115e484611110565b6115c9565b611110565b9050919050565b6000611600826115d3565b9050919050565b6000611612826115f5565b9050919050565b61162281611607565b82525050565b600060408201905061163d6000830185611619565b61164a6020830184611079565b9392505050565b7f4e487b7100000000000000000000000000000000000000000000000000000000600052602260045260246000fd5b6000600282049050600182168061169857607f821691505b602082108114156116ac576116ab611651565b5b50919050565b7f6374310000000000000000000000000000000000000000000000000000000000600082015250565b60006116e86003836114e0565b91506116f3826116b2565b602082019050919050565b60006020820190508181036000830152611717816116db565b9050919050565b7f6374320000000000000000000000000000000000000000000000000000000000600082015250565b60006117546003836114e0565b915061175f8261171e565b602082019050919050565b6000602082019050818103600083015261178381611747565b9050919050565b7f6374330000000000000000000000000000000000000000000000000000000000600082015250565b60006117c06003836114e0565b91506117cb8261178a565b602082019050919050565b600060208201905081810360008301526117ef816117b3565b9050919050565b7f7374310000000000000000000000000000000000000000000000000000000000600082015250565b600061182c6003836114e0565b9150611837826117f6565b602082019050919050565b6000602082019050818103600083015261185b8161181f565b9050919050565b7f6574310000000000000000000000000000000000000000000000000000000000600082015250565b60006118986003836114e0565b91506118a382611862565b602082019050919050565b600060208201905081810360008301526118c78161188b565b9050919050565b60008190508160005260206000209050919050565b600081546118f081611680565b6118fa818661155d565b94506001821660008114611915576001811461192657611959565b60ff19831686528186019350611959565b61192f856118ce565b60005b8381101561195157815481890152600182019150602081019050611932565b838801955050505b50505092915050565b600061196e82846118e3565b915081905092915050565b7f4e487b7100000000000000000000000000000000000000000000000000000000600052601160045260246000fd5b60006119b38261106f565b91506119be8361106f565b9250827fffffffffffffffffffffffffffffffffffffffffffffffffffffffffffffffff038211156119f3576119f2611979565b5b828201905092915050565b7f4e487b7100000000000000000000000000000000000000000000000000000000600052603260045260246000fd5b6000611a388261106f565b91507fffffffffffffffffffffffffffffffffffffffffffffffffffffffffffffffff821415611a6b57611a6a611979565b5b60018201905091905056fea264697066735822122049396370671e5a6f1a0005128ef25861642c05d2e15608dd317ee59218e5dc7364736f6c634300080a0033",
  "immutableReferences": {},
  "source": "// SPDX-License-Identifier: MIT\npragma solidity 0.8.10;\n\n/// @title A multisig wallet to execute decentralised will\n/// @author Tammy Yang\n/// @dev All function calls are unit tested\n\nimport \"./Utils.sol\";\n\ncontract MultiSig {\n\n    struct Transaction {\n      bool executed;\n      address destination;\n      uint value;\n      bytes data;\n      uint height;\n      uint signum;\n    }\n\n    event Deposit(address indexed sender, uint value);\n\n    // Fallback function allows to deposit ether.\n    fallback() external payable {\n        if (msg.value > 0) {\n            emit Deposit(msg.sender, msg.value);\n\t    }\n        revert();\n    }\n\n    receive() external payable {}\n\n    address[] public owners;\n    address payable addressWithdrawable;\n    uint public required;\n    uint public waitBlock;\n    uint public transactionCount;\n    uint public executionDate;\n    mapping (address => bool) public isOwner;\n    mapping (uint => Transaction) public transactions;\n    mapping (uint => mapping (address => bool)) public confirmations;\n\n    event Confirmation(address indexed sender, uint indexed transactionId);\n    event Submission(uint indexed transactionId);\n    event Execution(address indexed destination, uint indexed value, uint indexed transactionId);\n    event ExecutionFailure(address indexed destination, uint indexed value, uint indexed transactionId);\n    event WithdrawSuccess(address withdrawAddress, uint contractBalance);\n    event WithdrawFail(address withdrawAddress, uint contractBalance);\n\n    modifier validRequirement(uint ownerCount, uint _required) {\n          if (   _required > ownerCount || _required == 0 || ownerCount == 0)\n              revert();\n          _;\n      }\n\n    // Will creator also create this contract, he/she defines which address has the right to provide signature\n    // Also which address can withdraw locked fund\n    constructor(address[] memory _owners, uint _required, uint _waitBlock, address payable _addressWithdraw) \n        validRequirement(_owners.length, _required)\n    {\n         for (uint i=0; i<_owners.length; i++) {\n              isOwner[_owners[i]] = true;\n          }\n          owners = _owners;\n          required = _required;\n          waitBlock = _waitBlock;\n          addressWithdrawable = _addressWithdraw;\n    }\n\n    //This function allows a pre-defined address to submit transaction - which is the execution of d will\n    function submitTransaction(address destination, uint value, bytes memory data) public returns (uint transactionId) {\n        require(isOwner[msg.sender], 'st1');\n        transactionId = addTransaction(destination, value, data, block.number);\n        confirmTransaction(transactionId);\n    }\n\n    //This function confirm the transaction, if required number of confirmation are received, execute dwill\n    function confirmTransaction(uint transactionId) public {\n\n        require(isOwner[msg.sender], 'ct1');\n\n        require(transactions[transactionId].destination != address(0), 'ct2');\n\n        require(confirmations[transactionId][msg.sender] == false, 'ct3');\n\n        confirmations[transactionId][msg.sender] = true;\n\n        emit Confirmation(msg.sender, transactionId);\n\n        executeTransaction(transactionId);\n\n    }\n\n    //Execution function of dwill, can only be executed when below conditions are met:\n    // 1 All requierd signagure are received\n    // 2 Wallet is unlocked\n    event ExecutionLocked(address indexed sender,uint indexed curentBlock, uint expectedBlock);\n\n    function executeTransaction(uint transactionId) public {\n\n        require(transactions[transactionId].executed == false, 'et1');\n        \n        if (isConfirmed(transactionId)) {\n\n            Transaction storage t = transactions[transactionId]; \n\n            //Check whether wallet is unlocked, otherwise mark execution fail and revert current confirmation\n            if(Utils.getLockStatus(t.height, waitBlock, block.number)){\n                \n              t.executed = true;              \n              (bool success, ) = t.destination.call{value: address(this).balance}(t.data);\n\n              \n              if (success)          \n                  emit Execution(t.destination, t.value, transactionId);   \n              else {       \n                  emit ExecutionFailure(t.destination, t.value, transactionId);         \n                  t.executed = false;\n              }\n      \n            } else {\n                emit ExecutionLocked(msg.sender, block.number, t.height + waitBlock);       \n                t.executed = false;\n                confirmations[transactionId][msg.sender] = false; // revert confrimation if it comes earlier than expected\n            }     \n        }\n    }\n\n\n    //Helper function to check whether all required confirmation are received\n    function isConfirmed(uint transactionId) internal view returns (bool) {\n        uint count = 0;\n        for (uint i = 0; i < owners.length; i++) {\n            if (confirmations[transactionId][owners[i]])\n                count +=1;\n            if (count == required)\n                return true;\n        }\n    }\n\n    //Function to add the transaction that the wallet can execute\n    function addTransaction(address _destination, uint _value, bytes memory _data, uint _height) internal returns (uint transactionId) {\n        transactionId = transactionCount;\n        transactions[transactionId] = Transaction({\n            destination: _destination,\n            value: _value,\n            data: _data,\n            height: _height,\n            signum: 1,\n            executed: false\n        });\n        transactionCount += 1;\n        emit Submission(transactionId);\n    }\n\n    // Withdraw function only restricted to a specific address - nobody else can withdraw from this wallet\n    function withdraw() public {\n\n        require(msg.sender == addressWithdrawable, 'w');\n\n        (bool success, )= addressWithdrawable.call{value: address(this).balance}(\" \");\n        if(success){\n            emit WithdrawSuccess(addressWithdrawable, address(this).balance);\n        }\n        else{\n            emit WithdrawFail(addressWithdrawable, address(this).balance);\n            }\n        }\n}",
  "sourcePath": "/Users/tammy.yang@coinbase.com/src/consensys/blockchain-developer-bootcamp-final-project/contracts/MultiSig.sol",
  "compiler": {
    "name": "solc",
    "version": "0.8.10+commit.fc410830.Emscripten.clang"
  },
  "schemaVersion": "3.4.3",
  "updatedAt": "2022-01-10T11:43:36.653Z",
  "networkType": "ethereum",
  "devdoc": {
    "kind": "dev",
    "methods": {},
    "version": 1
  },
  "userdoc": {
    "kind": "user",
    "methods": {},
    "version": 1
  }
}