{
  "contractName": "MultiSig",
  "abi": [
    {
      "inputs": [
        {
          "internalType": "address[]",
          "name": "_owners",
          "type": "address[]"
        },
        {
          "internalType": "uint256",
          "name": "_required",
          "type": "uint256"
        },
        {
          "internalType": "uint256",
          "name": "_waitBlock",
          "type": "uint256"
        }
      ],
      "stateMutability": "nonpayable",
      "type": "constructor"
    },
    {
      "anonymous": false,
      "inputs": [
        {
          "indexed": true,
          "internalType": "address",
          "name": "sender",
          "type": "address"
        },
        {
          "indexed": true,
          "internalType": "uint256",
          "name": "transactionId",
          "type": "uint256"
        }
      ],
      "name": "Confirmation",
      "type": "event"
    },
    {
      "anonymous": false,
      "inputs": [
        {
          "indexed": true,
          "internalType": "address",
          "name": "sender",
          "type": "address"
        },
        {
          "indexed": false,
          "internalType": "uint256",
          "name": "value",
          "type": "uint256"
        }
      ],
      "name": "Deposit",
      "type": "event"
    },
    {
      "anonymous": false,
      "inputs": [
        {
          "indexed": true,
          "internalType": "address",
          "name": "destination",
          "type": "address"
        },
        {
          "indexed": true,
          "internalType": "uint256",
          "name": "value",
          "type": "uint256"
        },
        {
          "indexed": true,
          "internalType": "uint256",
          "name": "transactionId",
          "type": "uint256"
        }
      ],
      "name": "Execution",
      "type": "event"
    },
    {
      "anonymous": false,
      "inputs": [
        {
          "indexed": true,
          "internalType": "address",
          "name": "destination",
          "type": "address"
        },
        {
          "indexed": true,
          "internalType": "uint256",
          "name": "value",
          "type": "uint256"
        },
        {
          "indexed": true,
          "internalType": "uint256",
          "name": "transactionId",
          "type": "uint256"
        }
      ],
      "name": "ExecutionFailure",
      "type": "event"
    },
    {
      "anonymous": false,
      "inputs": [
        {
          "indexed": true,
          "internalType": "address",
          "name": "sender",
          "type": "address"
        },
        {
          "indexed": true,
          "internalType": "uint256",
          "name": "curentBlock",
          "type": "uint256"
        },
        {
          "indexed": false,
          "internalType": "uint256",
          "name": "expectedBlock",
          "type": "uint256"
        }
      ],
      "name": "ExecutionLocked",
      "type": "event"
    },
    {
      "anonymous": false,
      "inputs": [
        {
          "indexed": true,
          "internalType": "uint256",
          "name": "transactionId",
          "type": "uint256"
        }
      ],
      "name": "Submission",
      "type": "event"
    },
    {
      "stateMutability": "payable",
      "type": "fallback",
      "payable": true
    },
    {
      "inputs": [
        {
          "internalType": "uint256",
          "name": "",
          "type": "uint256"
        },
        {
          "internalType": "address",
          "name": "",
          "type": "address"
        }
      ],
      "name": "confirmations",
      "outputs": [
        {
          "internalType": "bool",
          "name": "",
          "type": "bool"
        }
      ],
      "stateMutability": "view",
      "type": "function",
      "constant": true
    },
    {
      "inputs": [],
      "name": "executionDate",
      "outputs": [
        {
          "internalType": "uint256",
          "name": "",
          "type": "uint256"
        }
      ],
      "stateMutability": "view",
      "type": "function",
      "constant": true
    },
    {
      "inputs": [
        {
          "internalType": "address",
          "name": "",
          "type": "address"
        }
      ],
      "name": "isOwner",
      "outputs": [
        {
          "internalType": "bool",
          "name": "",
          "type": "bool"
        }
      ],
      "stateMutability": "view",
      "type": "function",
      "constant": true
    },
    {
      "inputs": [
        {
          "internalType": "uint256",
          "name": "",
          "type": "uint256"
        }
      ],
      "name": "owners",
      "outputs": [
        {
          "internalType": "address",
          "name": "",
          "type": "address"
        }
      ],
      "stateMutability": "view",
      "type": "function",
      "constant": true
    },
    {
      "inputs": [],
      "name": "required",
      "outputs": [
        {
          "internalType": "uint256",
          "name": "",
          "type": "uint256"
        }
      ],
      "stateMutability": "view",
      "type": "function",
      "constant": true
    },
    {
      "inputs": [],
      "name": "transactionCount",
      "outputs": [
        {
          "internalType": "uint256",
          "name": "",
          "type": "uint256"
        }
      ],
      "stateMutability": "view",
      "type": "function",
      "constant": true
    },
    {
      "inputs": [
        {
          "internalType": "uint256",
          "name": "",
          "type": "uint256"
        }
      ],
      "name": "transactions",
      "outputs": [
        {
          "internalType": "bool",
          "name": "executed",
          "type": "bool"
        },
        {
          "internalType": "address",
          "name": "destination",
          "type": "address"
        },
        {
          "internalType": "uint256",
          "name": "value",
          "type": "uint256"
        },
        {
          "internalType": "bytes",
          "name": "data",
          "type": "bytes"
        },
        {
          "internalType": "uint256",
          "name": "height",
          "type": "uint256"
        },
        {
          "internalType": "uint256",
          "name": "signum",
          "type": "uint256"
        }
      ],
      "stateMutability": "view",
      "type": "function",
      "constant": true
    },
    {
      "inputs": [],
      "name": "waitBlock",
      "outputs": [
        {
          "internalType": "uint256",
          "name": "",
          "type": "uint256"
        }
      ],
      "stateMutability": "view",
      "type": "function",
      "constant": true
    },
    {
      "stateMutability": "payable",
      "type": "receive",
      "payable": true
    },
    {
      "inputs": [
        {
          "internalType": "uint256",
          "name": "transactionId",
          "type": "uint256"
        }
      ],
      "name": "getSigNum",
      "outputs": [
        {
          "internalType": "uint256",
          "name": "",
          "type": "uint256"
        }
      ],
      "stateMutability": "view",
      "type": "function",
      "constant": true
    },
    {
      "inputs": [
        {
          "internalType": "address",
          "name": "destination",
          "type": "address"
        },
        {
          "internalType": "uint256",
          "name": "value",
          "type": "uint256"
        },
        {
          "internalType": "bytes",
          "name": "data",
          "type": "bytes"
        }
      ],
      "name": "submitTransaction",
      "outputs": [
        {
          "internalType": "uint256",
          "name": "transactionId",
          "type": "uint256"
        }
      ],
      "stateMutability": "nonpayable",
      "type": "function"
    },
    {
      "inputs": [
        {
          "internalType": "uint256",
          "name": "transactionId",
          "type": "uint256"
        }
      ],
      "name": "confirmTransaction",
      "outputs": [],
      "stateMutability": "nonpayable",
      "type": "function"
    },
    {
      "inputs": [
        {
          "internalType": "uint256",
          "name": "transactionId",
          "type": "uint256"
        }
      ],
      "name": "executeTransaction",
      "outputs": [],
      "stateMutability": "nonpayable",
      "type": "function"
    }
  ],
  "bytecode": "0x60806040523480156200001157600080fd5b50604051620019ec380380620019ec833981810160405281019062000037919062000402565b82518281811180620000495750600081145b80620000555750600082145b156200006057600080fd5b60005b8551811015620000f8576001600560008884815181106200008957620000886200047d565b5b602002602001015173ffffffffffffffffffffffffffffffffffffffff1673ffffffffffffffffffffffffffffffffffffffff16815260200190815260200160002060006101000a81548160ff0219169083151502179055508080620000ef90620004db565b91505062000063565b508460009080519060200190620001119291906200012b565b508360018190555082600281905550505050505062000529565b828054828255906000526020600020908101928215620001a7579160200282015b82811115620001a65782518260006101000a81548173ffffffffffffffffffffffffffffffffffffffff021916908373ffffffffffffffffffffffffffffffffffffffff160217905550916020019190600101906200014c565b5b509050620001b69190620001ba565b5090565b5b80821115620001d5576000816000905550600101620001bb565b5090565b6000604051905090565b600080fd5b600080fd5b600080fd5b6000601f19601f8301169050919050565b7f4e487b7100000000000000000000000000000000000000000000000000000000600052604160045260246000fd5b6200023d82620001f2565b810181811067ffffffffffffffff821117156200025f576200025e62000203565b5b80604052505050565b600062000274620001d9565b905062000282828262000232565b919050565b600067ffffffffffffffff821115620002a557620002a462000203565b5b602082029050602081019050919050565b600080fd5b600073ffffffffffffffffffffffffffffffffffffffff82169050919050565b6000620002e882620002bb565b9050919050565b620002fa81620002db565b81146200030657600080fd5b50565b6000815190506200031a81620002ef565b92915050565b600062000337620003318462000287565b62000268565b905080838252602082019050602084028301858111156200035d576200035c620002b6565b5b835b818110156200038a578062000375888262000309565b8452602084019350506020810190506200035f565b5050509392505050565b600082601f830112620003ac57620003ab620001ed565b5b8151620003be84826020860162000320565b91505092915050565b6000819050919050565b620003dc81620003c7565b8114620003e857600080fd5b50565b600081519050620003fc81620003d1565b92915050565b6000806000606084860312156200041e576200041d620001e3565b5b600084015167ffffffffffffffff8111156200043f576200043e620001e8565b5b6200044d8682870162000394565b93505060206200046086828701620003eb565b92505060406200047386828701620003eb565b9150509250925092565b7f4e487b7100000000000000000000000000000000000000000000000000000000600052603260045260246000fd5b7f4e487b7100000000000000000000000000000000000000000000000000000000600052601160045260246000fd5b6000620004e882620003c7565b91507fffffffffffffffffffffffffffffffffffffffffffffffffffffffffffffffff8214156200051e576200051d620004ac565b5b600182019050919050565b6114b380620005396000396000f3fe6080604052600436106100ab5760003560e01c8063b77bf60011610064578063b77bf6001461025e578063c01a8c8414610289578063c6427474146102b2578063da08c86e146102ef578063dc8452cd1461032c578063ee22610b14610357576100b2565b8063025e7c271461010f5780632f54bf6e1461014c5780633411c81c146101895780639ace38c2146101c6578063a45365d314610208578063a761d1b614610233576100b2565b366100b257005b600034111561010a573373ffffffffffffffffffffffffffffffffffffffff167fe1fffcc4923d04b559f4d29a8bfc6cda04eb5b0d3c460751c2402c5c5cc9109c346040516101019190610e11565b60405180910390a25b600080fd5b34801561011b57600080fd5b5061013660048036038101906101319190610e6c565b610380565b6040516101439190610eda565b60405180910390f35b34801561015857600080fd5b50610173600480360381019061016e9190610f21565b6103bf565b6040516101809190610f69565b60405180910390f35b34801561019557600080fd5b506101b060048036038101906101ab9190610f84565b6103df565b6040516101bd9190610f69565b60405180910390f35b3480156101d257600080fd5b506101ed60048036038101906101e89190610e6c565b61040e565b6040516101ff9695949392919061105d565b60405180910390f35b34801561021457600080fd5b5061021d6104ff565b60405161022a9190610e11565b60405180910390f35b34801561023f57600080fd5b50610248610505565b6040516102559190610e11565b60405180910390f35b34801561026a57600080fd5b5061027361050b565b6040516102809190610e11565b60405180910390f35b34801561029557600080fd5b506102b060048036038101906102ab9190610e6c565b610511565b005b3480156102be57600080fd5b506102d960048036038101906102d491906111fa565b61072a565b6040516102e69190610e11565b60405180910390f35b3480156102fb57600080fd5b5061031660048036038101906103119190610e6c565b6107a2565b6040516103239190610e11565b60405180910390f35b34801561033857600080fd5b506103416107c2565b60405161034e9190610e11565b60405180910390f35b34801561036357600080fd5b5061037e60048036038101906103799190610e6c565b6107c8565b005b6000818154811061039057600080fd5b906000526020600020016000915054906101000a900473ffffffffffffffffffffffffffffffffffffffff1681565b60056020528060005260406000206000915054906101000a900460ff1681565b60076020528160005260406000206020528060005260406000206000915091509054906101000a900460ff1681565b60066020528060005260406000206000915090508060000160009054906101000a900460ff16908060000160019054906101000a900473ffffffffffffffffffffffffffffffffffffffff169080600101549080600201805461047090611298565b80601f016020809104026020016040519081016040528092919081815260200182805461049c90611298565b80156104e95780601f106104be576101008083540402835291602001916104e9565b820191906000526020600020905b8154815290600101906020018083116104cc57829003601f168201915b5050505050908060030154908060040154905086565b60025481565b60045481565b60035481565b600560003373ffffffffffffffffffffffffffffffffffffffff1673ffffffffffffffffffffffffffffffffffffffff16815260200190815260200160002060009054906101000a900460ff1661056757600080fd5b600073ffffffffffffffffffffffffffffffffffffffff166006600083815260200190815260200160002060000160019054906101000a900473ffffffffffffffffffffffffffffffffffffffff1673ffffffffffffffffffffffffffffffffffffffff1614156105d757600080fd5b600015156007600083815260200190815260200160002060003373ffffffffffffffffffffffffffffffffffffffff1673ffffffffffffffffffffffffffffffffffffffff16815260200190815260200160002060009054906101000a900460ff1615151461064557600080fd5b60016007600083815260200190815260200160002060003373ffffffffffffffffffffffffffffffffffffffff1673ffffffffffffffffffffffffffffffffffffffff16815260200190815260200160002060006101000a81548160ff021916908315150217905550803373ffffffffffffffffffffffffffffffffffffffff167f4a504a94899432a9846e1aa406dceb1bcfd538bb839071d49d1e5e23f5be30ef60405160405180910390a36106fb816107c8565b600660008281526020019081526020016000206004016000815480929190610722906112f9565b919050555050565b6000600560003373ffffffffffffffffffffffffffffffffffffffff1673ffffffffffffffffffffffffffffffffffffffff16815260200190815260200160002060009054906101000a900460ff1661078257600080fd5b610790848484436000610ae4565b905061079b81610511565b9392505050565b600060066000838152602001908152602001600020600401549050919050565b60015481565b600015156006600083815260200190815260200160002060000160009054906101000a900460ff161515146107fc57600080fd5b61080581610c39565b15610ae1576000600660008381526020019081526020016000209050610832816003015460025443610d30565b15610a615760018160000160006101000a81548160ff0219169083151502179055508060000160019054906101000a900473ffffffffffffffffffffffffffffffffffffffff1673ffffffffffffffffffffffffffffffffffffffff166108fc479081150290604051600060405180830381858888f193505050501580156108be573d6000803e3d6000fd5b5060008160000160019054906101000a900473ffffffffffffffffffffffffffffffffffffffff1673ffffffffffffffffffffffffffffffffffffffff1682600101548360020160405161091291906113e1565b60006040518083038185875af1925050503d806000811461094f576040519150601f19603f3d011682016040523d82523d6000602084013e610954565b606091505b5050905080156109d0578282600101548360000160019054906101000a900473ffffffffffffffffffffffffffffffffffffffff1673ffffffffffffffffffffffffffffffffffffffff167f3a79215c35280c50516adc051697ed94f955e0e43c5c646d59d0fc62b5254cb460405160405180910390a4610a5b565b8282600101548360000160019054906101000a900473ffffffffffffffffffffffffffffffffffffffff1673ffffffffffffffffffffffffffffffffffffffff167f8d24b020e7ba900ea81a875f9c7462c05ab35f3b71b19611e99f86ef00560e7460405160405180910390a460008260000160006101000a81548160ff0219169083151502179055505b50610adf565b433373ffffffffffffffffffffffffffffffffffffffff167f487fc7f3fcfc4303cc8b9779a3116e0f225ab0eaa4267eec538c1412fbc6c83f6002548460030154610aac91906113f8565b604051610ab99190610e11565b60405180910390a360008160000160006101000a81548160ff0219169083151502179055505b505b50565b600060035490506040518060c001604052806000151581526020018773ffffffffffffffffffffffffffffffffffffffff168152602001868152602001858152602001848152602001838152506006600083815260200190815260200160002060008201518160000160006101000a81548160ff02191690831515021790555060208201518160000160016101000a81548173ffffffffffffffffffffffffffffffffffffffff021916908373ffffffffffffffffffffffffffffffffffffffff160217905550604082015181600101556060820151816002019080519060200190610bd1929190610d55565b506080820151816003015560a08201518160040155905050600160036000828254610bfc91906113f8565b92505081905550807fc0ba8fe4b176c1714197d43b9cc6bcf797a4a7461c5fe8d0ef6e184ae7601e5160405160405180910390a295945050505050565b6000806000905060005b600080549050811015610d2857600760008581526020019081526020016000206000808381548110610c7857610c7761144e565b5b9060005260206000200160009054906101000a900473ffffffffffffffffffffffffffffffffffffffff1673ffffffffffffffffffffffffffffffffffffffff1673ffffffffffffffffffffffffffffffffffffffff16815260200190815260200160002060009054906101000a900460ff1615610d0057600182610cfd91906113f8565b91505b600154821415610d1557600192505050610d2b565b8080610d20906112f9565b915050610c43565b50505b919050565b60008383610d3e91906113f8565b8210610d4d5760019050610d4e565b5b9392505050565b828054610d6190611298565b90600052602060002090601f016020900481019282610d835760008555610dca565b82601f10610d9c57805160ff1916838001178555610dca565b82800160010185558215610dca579182015b82811115610dc9578251825591602001919060010190610dae565b5b509050610dd79190610ddb565b5090565b5b80821115610df4576000816000905550600101610ddc565b5090565b6000819050919050565b610e0b81610df8565b82525050565b6000602082019050610e266000830184610e02565b92915050565b6000604051905090565b600080fd5b600080fd5b610e4981610df8565b8114610e5457600080fd5b50565b600081359050610e6681610e40565b92915050565b600060208284031215610e8257610e81610e36565b5b6000610e9084828501610e57565b91505092915050565b600073ffffffffffffffffffffffffffffffffffffffff82169050919050565b6000610ec482610e99565b9050919050565b610ed481610eb9565b82525050565b6000602082019050610eef6000830184610ecb565b92915050565b610efe81610eb9565b8114610f0957600080fd5b50565b600081359050610f1b81610ef5565b92915050565b600060208284031215610f3757610f36610e36565b5b6000610f4584828501610f0c565b91505092915050565b60008115159050919050565b610f6381610f4e565b82525050565b6000602082019050610f7e6000830184610f5a565b92915050565b60008060408385031215610f9b57610f9a610e36565b5b6000610fa985828601610e57565b9250506020610fba85828601610f0c565b9150509250929050565b600081519050919050565b600082825260208201905092915050565b60005b83811015610ffe578082015181840152602081019050610fe3565b8381111561100d576000848401525b50505050565b6000601f19601f8301169050919050565b600061102f82610fc4565b6110398185610fcf565b9350611049818560208601610fe0565b61105281611013565b840191505092915050565b600060c0820190506110726000830189610f5a565b61107f6020830188610ecb565b61108c6040830187610e02565b818103606083015261109e8186611024565b90506110ad6080830185610e02565b6110ba60a0830184610e02565b979650505050505050565b600080fd5b600080fd5b7f4e487b7100000000000000000000000000000000000000000000000000000000600052604160045260246000fd5b61110782611013565b810181811067ffffffffffffffff82111715611126576111256110cf565b5b80604052505050565b6000611139610e2c565b905061114582826110fe565b919050565b600067ffffffffffffffff821115611165576111646110cf565b5b61116e82611013565b9050602081019050919050565b82818337600083830152505050565b600061119d6111988461114a565b61112f565b9050828152602081018484840111156111b9576111b86110ca565b5b6111c484828561117b565b509392505050565b600082601f8301126111e1576111e06110c5565b5b81356111f184826020860161118a565b91505092915050565b60008060006060848603121561121357611212610e36565b5b600061122186828701610f0c565b935050602061123286828701610e57565b925050604084013567ffffffffffffffff81111561125357611252610e3b565b5b61125f868287016111cc565b9150509250925092565b7f4e487b7100000000000000000000000000000000000000000000000000000000600052602260045260246000fd5b600060028204905060018216806112b057607f821691505b602082108114156112c4576112c3611269565b5b50919050565b7f4e487b7100000000000000000000000000000000000000000000000000000000600052601160045260246000fd5b600061130482610df8565b91507fffffffffffffffffffffffffffffffffffffffffffffffffffffffffffffffff821415611337576113366112ca565b5b600182019050919050565b600081905092915050565b60008190508160005260206000209050919050565b6000815461136f81611298565b6113798186611342565b9450600182166000811461139457600181146113a5576113d8565b60ff198316865281860193506113d8565b6113ae8561134d565b60005b838110156113d0578154818901526001820191506020810190506113b1565b838801955050505b50505092915050565b60006113ed8284611362565b915081905092915050565b600061140382610df8565b915061140e83610df8565b9250827fffffffffffffffffffffffffffffffffffffffffffffffffffffffffffffffff03821115611443576114426112ca565b5b828201905092915050565b7f4e487b7100000000000000000000000000000000000000000000000000000000600052603260045260246000fdfea26469706673582212204ad0d5ce170bef6456049e72c0f36872cc7401b769552db2ce1fef2509c22dca64736f6c634300080a0033",
  "immutableReferences": {},
  "source": "// SPDX-License-Identifier: MIT\r\npragma solidity 0.8.10;\r\n\r\nimport \"./Utils.sol\";\r\n\r\ncontract MultiSig {\r\n\r\n    struct Transaction {\r\n      bool executed;\r\n      address destination;\r\n      uint value;\r\n      bytes data;\r\n      uint height;\r\n      uint signum;\r\n    }\r\n\r\n    event Deposit(address indexed sender, uint value);\r\n\r\n    // Fallback function allows to deposit ether.\r\n    fallback() external payable {\r\n        if (msg.value > 0) {\r\n            emit Deposit(msg.sender, msg.value);\r\n\t    }\r\n        revert();\r\n    }\r\n\r\n    receive() external payable {}\r\n\r\n    address[] public owners;\r\n    uint public required;\r\n    uint public waitBlock;\r\n    uint public transactionCount;\r\n    uint public executionDate;\r\n    mapping (address => bool) public isOwner;\r\n    mapping (uint => Transaction) public transactions;\r\n    mapping (uint => mapping (address => bool)) public confirmations;\r\n\r\n    event Confirmation(address indexed sender, uint indexed transactionId);\r\n    event Submission(uint indexed transactionId);\r\n    event Execution(address indexed destination, uint indexed value, uint indexed transactionId);\r\n    event ExecutionFailure(address indexed destination, uint indexed value, uint indexed transactionId);\r\n\r\n    modifier validRequirement(uint ownerCount, uint _required) {\r\n          if (   _required > ownerCount || _required == 0 || ownerCount == 0)\r\n              revert();\r\n          _;\r\n      }\r\n\r\n    constructor(address[] memory _owners, uint _required, uint _waitBlock) \r\n        validRequirement(_owners.length, _required)\r\n    {\r\n         for (uint i=0; i<_owners.length; i++) {\r\n              isOwner[_owners[i]] = true;\r\n          }\r\n          owners = _owners;\r\n          required = _required;\r\n          waitBlock = _waitBlock;\r\n    }\r\n    \r\n    function getSigNum(uint transactionId) public view returns(uint){   \r\n        return transactions[transactionId].signum;\r\n    }\r\n\r\n    function submitTransaction(address destination, uint value, bytes memory data) public returns (uint transactionId) {\r\n        require(isOwner[msg.sender]);\r\n        transactionId = addTransaction(destination, value, data, block.number, 0);\r\n        confirmTransaction(transactionId);\r\n    }\r\n\r\n\r\n    function confirmTransaction(uint transactionId) public {\r\n\r\n        require(isOwner[msg.sender]);\r\n\r\n        require(transactions[transactionId].destination != address(0));\r\n\r\n        require(confirmations[transactionId][msg.sender] == false);\r\n\r\n        confirmations[transactionId][msg.sender] = true;\r\n\r\n        emit Confirmation(msg.sender, transactionId);\r\n\r\n        executeTransaction(transactionId);\r\n\r\n        transactions[transactionId].signum ++;\r\n\r\n    }\r\n\r\n    event ExecutionLocked(address indexed sender,uint indexed curentBlock, uint expectedBlock);\r\n\r\n    function executeTransaction(uint transactionId) public {\r\n\r\n        require(transactions[transactionId].executed == false);\r\n        \r\n        if (isConfirmed(transactionId)) {\r\n\r\n            Transaction storage t = transactions[transactionId]; \r\n\r\n            if(Utils.getLockStatus(t.height, waitBlock, block.number)){\r\n                \r\n              t.executed = true;\r\n\r\n              payable(t.destination).transfer(address(this).balance);\r\n              \r\n              (bool success, ) = t.destination.call{value: t.value}(t.data);\r\n\r\n              \r\n              if (success)          \r\n                  emit Execution(t.destination, t.value, transactionId);   \r\n              else {       \r\n                  emit ExecutionFailure(t.destination, t.value, transactionId);         \r\n                  t.executed = false;\r\n              }\r\n      \r\n            } else {\r\n                emit ExecutionLocked(msg.sender, block.number, t.height + waitBlock);       \r\n                t.executed = false;\r\n\r\n            }     \r\n        }\r\n    }\r\n\r\n    function isConfirmed(uint transactionId) internal view returns (bool) {\r\n        uint count = 0;\r\n        for (uint i = 0; i < owners.length; i++) {\r\n            if (confirmations[transactionId][owners[i]])\r\n                count +=1;\r\n            if (count == required)\r\n                return true;\r\n        }\r\n\r\n    }\r\n\r\n    function addTransaction(address _destination, uint _value, bytes memory _data, uint _height, uint _signum) internal returns (uint transactionId) {\r\n        transactionId = transactionCount;\r\n        transactions[transactionId] = Transaction({\r\n            destination: _destination,\r\n            value: _value,\r\n            data: _data,\r\n            height: _height,\r\n            executed: false,\r\n            signum: _signum\r\n        });\r\n        transactionCount += 1;\r\n        emit Submission(transactionId);\r\n    }\r\n\r\n}",
  "sourcePath": "C:\\Users\\LambLamb\\consensys\\blockchain-developer-bootcamp-final-project\\contracts\\MultiSig.sol",
  "compiler": {
    "name": "solc",
    "version": "0.8.10+commit.fc410830.Emscripten.clang"
  },
  "schemaVersion": "3.4.4",
  "updatedAt": "2022-01-09T16:35:15.060Z",
  "networkType": "ethereum",
  "devdoc": {
    "kind": "dev",
    "methods": {},
    "version": 1
  },
  "userdoc": {
    "kind": "user",
    "methods": {},
    "version": 1
  }
}