{
  "contractName": "MultiSig",
  "abi": [
    {
      "inputs": [
        {
          "internalType": "address[]",
          "name": "_owners",
          "type": "address[]"
        },
        {
          "internalType": "uint256",
          "name": "_required",
          "type": "uint256"
        }
      ],
      "stateMutability": "nonpayable",
      "type": "constructor"
    },
    {
      "anonymous": false,
      "inputs": [
        {
          "indexed": true,
          "internalType": "address",
          "name": "sender",
          "type": "address"
        },
        {
          "indexed": true,
          "internalType": "uint256",
          "name": "transactionId",
          "type": "uint256"
        }
      ],
      "name": "Confirmation",
      "type": "event"
    },
    {
      "anonymous": false,
      "inputs": [
        {
          "indexed": true,
          "internalType": "address",
          "name": "sender",
          "type": "address"
        },
        {
          "indexed": false,
          "internalType": "uint256",
          "name": "value",
          "type": "uint256"
        }
      ],
      "name": "Deposit",
      "type": "event"
    },
    {
      "anonymous": false,
      "inputs": [
        {
          "indexed": true,
          "internalType": "address",
          "name": "destination",
          "type": "address"
        },
        {
          "indexed": true,
          "internalType": "uint256",
          "name": "value",
          "type": "uint256"
        },
        {
          "indexed": true,
          "internalType": "uint256",
          "name": "transactionId",
          "type": "uint256"
        }
      ],
      "name": "Execution",
      "type": "event"
    },
    {
      "anonymous": false,
      "inputs": [
        {
          "indexed": true,
          "internalType": "address",
          "name": "destination",
          "type": "address"
        },
        {
          "indexed": true,
          "internalType": "uint256",
          "name": "value",
          "type": "uint256"
        },
        {
          "indexed": true,
          "internalType": "uint256",
          "name": "transactionId",
          "type": "uint256"
        }
      ],
      "name": "ExecutionFailure",
      "type": "event"
    },
    {
      "anonymous": false,
      "inputs": [
        {
          "indexed": true,
          "internalType": "uint256",
          "name": "transactionId",
          "type": "uint256"
        }
      ],
      "name": "Submission",
      "type": "event"
    },
    {
      "stateMutability": "payable",
      "type": "fallback",
      "payable": true
    },
    {
      "inputs": [
        {
          "internalType": "uint256",
          "name": "",
          "type": "uint256"
        },
        {
          "internalType": "address",
          "name": "",
          "type": "address"
        }
      ],
      "name": "confirmations",
      "outputs": [
        {
          "internalType": "bool",
          "name": "",
          "type": "bool"
        }
      ],
      "stateMutability": "view",
      "type": "function",
      "constant": true
    },
    {
      "inputs": [
        {
          "internalType": "address",
          "name": "",
          "type": "address"
        }
      ],
      "name": "isOwner",
      "outputs": [
        {
          "internalType": "bool",
          "name": "",
          "type": "bool"
        }
      ],
      "stateMutability": "view",
      "type": "function",
      "constant": true
    },
    {
      "inputs": [
        {
          "internalType": "uint256",
          "name": "",
          "type": "uint256"
        }
      ],
      "name": "owners",
      "outputs": [
        {
          "internalType": "address",
          "name": "",
          "type": "address"
        }
      ],
      "stateMutability": "view",
      "type": "function",
      "constant": true
    },
    {
      "inputs": [],
      "name": "required",
      "outputs": [
        {
          "internalType": "uint256",
          "name": "",
          "type": "uint256"
        }
      ],
      "stateMutability": "view",
      "type": "function",
      "constant": true
    },
    {
      "inputs": [],
      "name": "transactionCount",
      "outputs": [
        {
          "internalType": "uint256",
          "name": "",
          "type": "uint256"
        }
      ],
      "stateMutability": "view",
      "type": "function",
      "constant": true
    },
    {
      "inputs": [
        {
          "internalType": "uint256",
          "name": "",
          "type": "uint256"
        }
      ],
      "name": "transactions",
      "outputs": [
        {
          "internalType": "bool",
          "name": "executed",
          "type": "bool"
        },
        {
          "internalType": "address",
          "name": "destination",
          "type": "address"
        },
        {
          "internalType": "uint256",
          "name": "value",
          "type": "uint256"
        },
        {
          "internalType": "bytes",
          "name": "data",
          "type": "bytes"
        }
      ],
      "stateMutability": "view",
      "type": "function",
      "constant": true
    },
    {
      "stateMutability": "payable",
      "type": "receive",
      "payable": true
    },
    {
      "inputs": [
        {
          "internalType": "address",
          "name": "destination",
          "type": "address"
        },
        {
          "internalType": "uint256",
          "name": "value",
          "type": "uint256"
        },
        {
          "internalType": "bytes",
          "name": "data",
          "type": "bytes"
        }
      ],
      "name": "submitTransaction",
      "outputs": [
        {
          "internalType": "uint256",
          "name": "transactionId",
          "type": "uint256"
        }
      ],
      "stateMutability": "nonpayable",
      "type": "function"
    },
    {
      "inputs": [
        {
          "internalType": "uint256",
          "name": "transactionId",
          "type": "uint256"
        }
      ],
      "name": "confirmTransaction",
      "outputs": [],
      "stateMutability": "nonpayable",
      "type": "function"
    },
    {
      "inputs": [
        {
          "internalType": "uint256",
          "name": "transactionId",
          "type": "uint256"
        }
      ],
      "name": "revokeConfirmation",
      "outputs": [],
      "stateMutability": "nonpayable",
      "type": "function"
    },
    {
      "inputs": [
        {
          "internalType": "uint256",
          "name": "transactionId",
          "type": "uint256"
        }
      ],
      "name": "executeTransaction",
      "outputs": [],
      "stateMutability": "nonpayable",
      "type": "function"
    }
  ],
  "bytecode": "0x60806040523480156200001157600080fd5b50604051620017ea380380620017ea8339818101604052810190620000379190620003fa565b81518181811180620000495750600081145b80620000555750600082145b156200006057600080fd5b60005b8451811015620000f85760016002600087848151811062000089576200008862000460565b5b602002602001015173ffffffffffffffffffffffffffffffffffffffff1673ffffffffffffffffffffffffffffffffffffffff16815260200190815260200160002060006101000a81548160ff0219169083151502179055508080620000ef90620004be565b91505062000063565b5083600090805190602001906200011192919062000123565b5082600181905550505050506200050c565b8280548282559060005260206000209081019282156200019f579160200282015b828111156200019e5782518260006101000a81548173ffffffffffffffffffffffffffffffffffffffff021916908373ffffffffffffffffffffffffffffffffffffffff1602179055509160200191906001019062000144565b5b509050620001ae9190620001b2565b5090565b5b80821115620001cd576000816000905550600101620001b3565b5090565b6000604051905090565b600080fd5b600080fd5b600080fd5b6000601f19601f8301169050919050565b7f4e487b7100000000000000000000000000000000000000000000000000000000600052604160045260246000fd5b6200023582620001ea565b810181811067ffffffffffffffff82111715620002575762000256620001fb565b5b80604052505050565b60006200026c620001d1565b90506200027a82826200022a565b919050565b600067ffffffffffffffff8211156200029d576200029c620001fb565b5b602082029050602081019050919050565b600080fd5b600073ffffffffffffffffffffffffffffffffffffffff82169050919050565b6000620002e082620002b3565b9050919050565b620002f281620002d3565b8114620002fe57600080fd5b50565b6000815190506200031281620002e7565b92915050565b60006200032f62000329846200027f565b62000260565b90508083825260208201905060208402830185811115620003555762000354620002ae565b5b835b818110156200038257806200036d888262000301565b84526020840193505060208101905062000357565b5050509392505050565b600082601f830112620003a457620003a3620001e5565b5b8151620003b684826020860162000318565b91505092915050565b6000819050919050565b620003d481620003bf565b8114620003e057600080fd5b50565b600081519050620003f481620003c9565b92915050565b60008060408385031215620004145762000413620001db565b5b600083015167ffffffffffffffff811115620004355762000434620001e0565b5b62000443858286016200038c565b92505060206200045685828601620003e3565b9150509250929050565b7f4e487b7100000000000000000000000000000000000000000000000000000000600052603260045260246000fd5b7f4e487b7100000000000000000000000000000000000000000000000000000000600052601160045260246000fd5b6000620004cb82620003bf565b91507fffffffffffffffffffffffffffffffffffffffffffffffffffffffffffffffff8214156200050157620005006200048f565b5b600182019050919050565b6112ce806200051c6000396000f3fe6080604052600436106100955760003560e01c8063b77bf60011610059578063b77bf60014610216578063c01a8c8414610241578063c64274741461026a578063dc8452cd146102a7578063ee22610b146102d25761009c565b8063025e7c27146100f657806320ea8d86146101335780632f54bf6e1461015c5780633411c81c146101995780639ace38c2146101d65761009c565b3661009c57005b60003411156100f4573373ffffffffffffffffffffffffffffffffffffffff167fe1fffcc4923d04b559f4d29a8bfc6cda04eb5b0d3c460751c2402c5c5cc9109c346040516100eb9190610c48565b60405180910390a25b005b34801561010257600080fd5b5061011d60048036038101906101189190610ca3565b6102fb565b60405161012a9190610d11565b60405180910390f35b34801561013f57600080fd5b5061015a60048036038101906101559190610ca3565b61033a565b005b34801561016857600080fd5b50610183600480360381019061017e9190610d58565b61033d565b6040516101909190610da0565b60405180910390f35b3480156101a557600080fd5b506101c060048036038101906101bb9190610dbb565b61035d565b6040516101cd9190610da0565b60405180910390f35b3480156101e257600080fd5b506101fd60048036038101906101f89190610ca3565b61038c565b60405161020d9493929190610e94565b60405180910390f35b34801561022257600080fd5b5061022b610471565b6040516102389190610c48565b60405180910390f35b34801561024d57600080fd5b5061026860048036038101906102639190610ca3565b610477565b005b34801561027657600080fd5b50610291600480360381019061028c9190611015565b610664565b60405161029e9190610c48565b60405180910390f35b3480156102b357600080fd5b506102bc6106d9565b6040516102c99190610c48565b60405180910390f35b3480156102de57600080fd5b506102f960048036038101906102f49190610ca3565b6106df565b005b6000818154811061030b57600080fd5b906000526020600020016000915054906101000a900473ffffffffffffffffffffffffffffffffffffffff1681565b50565b60026020528060005260406000206000915054906101000a900460ff1681565b60056020528160005260406000206020528060005260406000206000915091509054906101000a900460ff1681565b60046020528060005260406000206000915090508060000160009054906101000a900460ff16908060000160019054906101000a900473ffffffffffffffffffffffffffffffffffffffff16908060010154908060020180546103ee906110b3565b80601f016020809104026020016040519081016040528092919081815260200182805461041a906110b3565b80156104675780601f1061043c57610100808354040283529160200191610467565b820191906000526020600020905b81548152906001019060200180831161044a57829003601f168201915b5050505050905084565b60035481565b600260003373ffffffffffffffffffffffffffffffffffffffff1673ffffffffffffffffffffffffffffffffffffffff16815260200190815260200160002060009054906101000a900460ff166104cd57600080fd5b600073ffffffffffffffffffffffffffffffffffffffff166004600083815260200190815260200160002060000160019054906101000a900473ffffffffffffffffffffffffffffffffffffffff1673ffffffffffffffffffffffffffffffffffffffff16141561053d57600080fd5b600015156005600083815260200190815260200160002060003373ffffffffffffffffffffffffffffffffffffffff1673ffffffffffffffffffffffffffffffffffffffff16815260200190815260200160002060009054906101000a900460ff161515146105ab57600080fd5b60016005600083815260200190815260200160002060003373ffffffffffffffffffffffffffffffffffffffff1673ffffffffffffffffffffffffffffffffffffffff16815260200190815260200160002060006101000a81548160ff021916908315150217905550803373ffffffffffffffffffffffffffffffffffffffff167f4a504a94899432a9846e1aa406dceb1bcfd538bb839071d49d1e5e23f5be30ef60405160405180910390a3610661816106df565b50565b6000600260003373ffffffffffffffffffffffffffffffffffffffff1673ffffffffffffffffffffffffffffffffffffffff16815260200190815260200160002060009054906101000a900460ff166106bc57600080fd5b6106c7848484610962565b90506106d281610477565b9392505050565b60015481565b600015156004600083815260200190815260200160002060000160009054906101000a900460ff1615151461071357600080fd5b61071c81610a95565b1561095f57600060046000838152602001908152602001600020905060018160000160006101000a81548160ff0219169083151502179055508060000160019054906101000a900473ffffffffffffffffffffffffffffffffffffffff1673ffffffffffffffffffffffffffffffffffffffff166108fc479081150290604051600060405180830381858888f193505050501580156107bf573d6000803e3d6000fd5b5060008160000160019054906101000a900473ffffffffffffffffffffffffffffffffffffffff1673ffffffffffffffffffffffffffffffffffffffff168260010154836002016040516108139190611184565b60006040518083038185875af1925050503d8060008114610850576040519150601f19603f3d011682016040523d82523d6000602084013e610855565b606091505b5050905080156108d1578282600101548360000160019054906101000a900473ffffffffffffffffffffffffffffffffffffffff1673ffffffffffffffffffffffffffffffffffffffff167f3a79215c35280c50516adc051697ed94f955e0e43c5c646d59d0fc62b5254cb460405160405180910390a461095c565b8282600101548360000160019054906101000a900473ffffffffffffffffffffffffffffffffffffffff1673ffffffffffffffffffffffffffffffffffffffff167f8d24b020e7ba900ea81a875f9c7462c05ab35f3b71b19611e99f86ef00560e7460405160405180910390a460008260000160006101000a81548160ff0219169083151502179055505b50505b50565b6000600354905060405180608001604052806000151581526020018573ffffffffffffffffffffffffffffffffffffffff168152602001848152602001838152506004600083815260200190815260200160002060008201518160000160006101000a81548160ff02191690831515021790555060208201518160000160016101000a81548173ffffffffffffffffffffffffffffffffffffffff021916908373ffffffffffffffffffffffffffffffffffffffff160217905550604082015181600101556060820151816002019080519060200190610a43929190610b8c565b50905050600160036000828254610a5a91906111ca565b92505081905550807fc0ba8fe4b176c1714197d43b9cc6bcf797a4a7461c5fe8d0ef6e184ae7601e5160405160405180910390a29392505050565b6000806000905060005b600080549050811015610b8457600560008581526020019081526020016000206000808381548110610ad457610ad3611220565b5b9060005260206000200160009054906101000a900473ffffffffffffffffffffffffffffffffffffffff1673ffffffffffffffffffffffffffffffffffffffff1673ffffffffffffffffffffffffffffffffffffffff16815260200190815260200160002060009054906101000a900460ff1615610b5c57600182610b5991906111ca565b91505b600154821415610b7157600192505050610b87565b8080610b7c9061124f565b915050610a9f565b50505b919050565b828054610b98906110b3565b90600052602060002090601f016020900481019282610bba5760008555610c01565b82601f10610bd357805160ff1916838001178555610c01565b82800160010185558215610c01579182015b82811115610c00578251825591602001919060010190610be5565b5b509050610c0e9190610c12565b5090565b5b80821115610c2b576000816000905550600101610c13565b5090565b6000819050919050565b610c4281610c2f565b82525050565b6000602082019050610c5d6000830184610c39565b92915050565b6000604051905090565b600080fd5b600080fd5b610c8081610c2f565b8114610c8b57600080fd5b50565b600081359050610c9d81610c77565b92915050565b600060208284031215610cb957610cb8610c6d565b5b6000610cc784828501610c8e565b91505092915050565b600073ffffffffffffffffffffffffffffffffffffffff82169050919050565b6000610cfb82610cd0565b9050919050565b610d0b81610cf0565b82525050565b6000602082019050610d266000830184610d02565b92915050565b610d3581610cf0565b8114610d4057600080fd5b50565b600081359050610d5281610d2c565b92915050565b600060208284031215610d6e57610d6d610c6d565b5b6000610d7c84828501610d43565b91505092915050565b60008115159050919050565b610d9a81610d85565b82525050565b6000602082019050610db56000830184610d91565b92915050565b60008060408385031215610dd257610dd1610c6d565b5b6000610de085828601610c8e565b9250506020610df185828601610d43565b9150509250929050565b600081519050919050565b600082825260208201905092915050565b60005b83811015610e35578082015181840152602081019050610e1a565b83811115610e44576000848401525b50505050565b6000601f19601f8301169050919050565b6000610e6682610dfb565b610e708185610e06565b9350610e80818560208601610e17565b610e8981610e4a565b840191505092915050565b6000608082019050610ea96000830187610d91565b610eb66020830186610d02565b610ec36040830185610c39565b8181036060830152610ed58184610e5b565b905095945050505050565b600080fd5b600080fd5b7f4e487b7100000000000000000000000000000000000000000000000000000000600052604160045260246000fd5b610f2282610e4a565b810181811067ffffffffffffffff82111715610f4157610f40610eea565b5b80604052505050565b6000610f54610c63565b9050610f608282610f19565b919050565b600067ffffffffffffffff821115610f8057610f7f610eea565b5b610f8982610e4a565b9050602081019050919050565b82818337600083830152505050565b6000610fb8610fb384610f65565b610f4a565b905082815260208101848484011115610fd457610fd3610ee5565b5b610fdf848285610f96565b509392505050565b600082601f830112610ffc57610ffb610ee0565b5b813561100c848260208601610fa5565b91505092915050565b60008060006060848603121561102e5761102d610c6d565b5b600061103c86828701610d43565b935050602061104d86828701610c8e565b925050604084013567ffffffffffffffff81111561106e5761106d610c72565b5b61107a86828701610fe7565b9150509250925092565b7f4e487b7100000000000000000000000000000000000000000000000000000000600052602260045260246000fd5b600060028204905060018216806110cb57607f821691505b602082108114156110df576110de611084565b5b50919050565b600081905092915050565b60008190508160005260206000209050919050565b60008154611112816110b3565b61111c81866110e5565b9450600182166000811461113757600181146111485761117b565b60ff1983168652818601935061117b565b611151856110f0565b60005b8381101561117357815481890152600182019150602081019050611154565b838801955050505b50505092915050565b60006111908284611105565b915081905092915050565b7f4e487b7100000000000000000000000000000000000000000000000000000000600052601160045260246000fd5b60006111d582610c2f565b91506111e083610c2f565b9250827fffffffffffffffffffffffffffffffffffffffffffffffffffffffffffffffff038211156112155761121461119b565b5b828201905092915050565b7f4e487b7100000000000000000000000000000000000000000000000000000000600052603260045260246000fd5b600061125a82610c2f565b91507fffffffffffffffffffffffffffffffffffffffffffffffffffffffffffffffff82141561128d5761128c61119b565b5b60018201905091905056fea2646970667358221220c71ec235a47b798489e74f135ac9e20087a57fc14796fcb9aeb506ccdc07ad3664736f6c634300080a0033",
  "immutableReferences": {},
  "source": "// SPDX-License-Identifier: MIT\r\npragma solidity >=0.4.22 <0.9.0;\r\n\r\ncontract MultiSig {\r\n\r\n\r\n    struct Transaction {\r\n      bool executed;\r\n      address destination;\r\n      uint value;\r\n      bytes data;\r\n    }\r\n\r\n    event Deposit(address indexed sender, uint value);\r\n\r\n\r\n    // Fallback function allows to deposit ether.\r\n    fallback() external payable {\r\n        if (msg.value > 0) {\r\n            emit Deposit(msg.sender, msg.value);\r\n\t    }\r\n    }\r\n\r\n    receive() external payable {}\r\n\r\n\r\n    address[] public owners;\r\n\r\n    uint public required;\r\n    \r\n    mapping (address => bool) public isOwner;\r\n\r\n    uint public transactionCount;\r\n\r\n    mapping (uint => Transaction) public transactions;\r\n\r\n    mapping (uint => mapping (address => bool)) public confirmations;\r\n\r\n    event Confirmation(address indexed sender, uint indexed transactionId);\r\n\r\n    event Submission(uint indexed transactionId);\r\n\r\n    event Execution(address indexed destination, uint indexed value, uint indexed transactionId);\r\n    \r\n    event ExecutionFailure(address indexed destination, uint indexed value, uint indexed transactionId);\r\n\r\n    modifier validRequirement(uint ownerCount, uint _required) {\r\n          if (   _required > ownerCount || _required == 0 || ownerCount == 0)\r\n              revert();\r\n          _;\r\n      }\r\n\r\n    constructor(address[] memory _owners, uint _required) \r\n        validRequirement(_owners.length, _required)\r\n    {\r\n         for (uint i=0; i<_owners.length; i++) {\r\n              isOwner[_owners[i]] = true;\r\n          }\r\n          owners = _owners;\r\n          required = _required;\r\n    }\r\n    \r\n\r\n    function submitTransaction(address destination, uint value, bytes memory data) public returns (uint transactionId) {\r\n        require(isOwner[msg.sender]);\r\n        transactionId = addTransaction(destination, value, data);\r\n        confirmTransaction(transactionId);\r\n    }\r\n\r\n\r\n    function confirmTransaction(uint transactionId) public {\r\n        require(isOwner[msg.sender]);\r\n        require(transactions[transactionId].destination != address(0));\r\n        require(confirmations[transactionId][msg.sender] == false);\r\n        confirmations[transactionId][msg.sender] = true;\r\n        emit Confirmation(msg.sender, transactionId);\r\n        executeTransaction(transactionId);\r\n    }\r\n\r\n    function revokeConfirmation(uint transactionId) public {}\r\n\r\n    function executeTransaction(uint transactionId) public {\r\n\r\n        require(transactions[transactionId].executed == false);\r\n        \r\n        if (isConfirmed(transactionId)) {\r\n              \r\n              Transaction storage t = transactions[transactionId]; \r\n              \r\n              t.executed = true;\r\n              \r\n              payable(t.destination).transfer(address(this).balance);\r\n              \r\n              (bool success, /*bytes memory */) = t.destination.call{value: t.value}(t.data);\r\n\r\n              \r\n              if (success)\r\n              \r\n                  emit Execution(t.destination, t.value, transactionId);\r\n              \r\n              else {\r\n              \r\n                  emit ExecutionFailure(t.destination, t.value, transactionId);\r\n              \r\n                  t.executed = false;\r\n              }\r\n          }\r\n\r\n    }\r\n\r\n    function isConfirmed(uint transactionId) internal view returns (bool) {\r\n        uint count = 0;\r\n        for (uint i = 0; i < owners.length; i++) {\r\n            if (confirmations[transactionId][owners[i]])\r\n                count +=1;\r\n            if (count == required)\r\n                return true;\r\n        }\r\n\r\n    }\r\n\r\n    function addTransaction(address destination, uint value, bytes memory data) internal returns (uint transactionId) {\r\n        transactionId = transactionCount;\r\n        transactions[transactionId] = Transaction({\r\n            destination: destination,\r\n            value: value,\r\n            data: data,\r\n            executed: false\r\n        });\r\n        transactionCount += 1;\r\n        emit Submission(transactionId);\r\n    }\r\n}",
  "sourcePath": "C:\\Users\\LambLamb\\consensys\\blockchain-developer-bootcamp-final-project\\contracts\\MultiSig.sol",
  "compiler": {
    "name": "solc",
    "version": "0.8.10+commit.fc410830.Emscripten.clang"
  },
  "schemaVersion": "3.4.4",
  "updatedAt": "2022-01-05T00:09:03.180Z",
  "networkType": "ethereum",
  "devdoc": {
    "kind": "dev",
    "methods": {},
    "version": 1
  },
  "userdoc": {
    "kind": "user",
    "methods": {},
    "version": 1
  }
}